:020000040800F2
:10000000B8540020D5030008FF5300081F4D000816
:10001000FD530008F1230008797300080000000078
:1000200000000000000000000000000015030008B0
:10003000052500080000000071030008056B00089A
:10004000EF030008EF030008EF030008EF030008C8
:10005000EF030008EF030008072500080D2500083E
:10006000EF030008EF030008EF030008EF030008A8
:10007000EF030008EF030008F5230008012400083F
:100080000D24000819240008491F0008EF03000888
:10009000EF030008EF030008EF030008EF03000878
:1000A000EF030008EF030008EF030008EF03000868
:1000B000EF030008D56B0008EF030008EF0300080A
:1000C000EF030008EF030008EF030008CD5C000811
:1000D000D95C00082973000851730008EF03000879
:1000E000EF030008EF030008EF030008EF03000828
:1000F000EF030008EF030008EF030008EF03000818
:10010000EF030008EF030008EF030008EF03000807
:10011000EF030008EF030008E16B0008EF0300089D
:1001200025240008EF030008312400083D240008BE
:10013000492400080000000000000000EF03000850
:10014000EF030008EF030008EF030008EF030008C7
:10015000EF030008EF03000855240008EF03000830
:10016000EF030008EF030008EF030008EF030008A7
:10017000EF030008EF03000800000000000000008B
:10018000EF030008EF03000800F002F800F0B2F8F7
:100190000AA090E8000C82448344AAF10107DA45E2
:1001A00001D100F0A7F8AFF2090EBAE80F0013F082
:1001B000010F18BFFB1A43F00103184734B30000C6
:1001C00054B300000A444FF0000C10F8013B13F048
:1001D000070408BF10F8014B1D1108BF10F8015BA0
:1001E000641E05D010F8016B641E01F8016BF9D193
:1001F00013F0080F1EBF10F8014BAD1C0C1B09D1EA
:100200006D1E58BF01F801CBFAD505E014F8016B5B
:1002100001F8016B6D1EF9D59142D6D370470000ED
:100220000023002400250026103A28BF78C1FBD8FF
:10023000520728BF30C148BF0B6070476E2900F0DD
:10024000E982702900F0338466290AF066876529FF
:100250000AF0638767290AF0608761290AF05F87DF
:1002600003681B0A28BF41F08001692900F09682CB
:10027000642900F09382752900F090826F2900F0C4
:10028000C083782900F0FF83E92900F05B83E4292B
:1002900000F05883F52900F05583EF2900F0BD8365
:1002A000F82900F0FE830368DB0928BF41F08001D4
:1002B000632901F00581732901F00A81E32901F026
:1002C0001581F32901F01A81002070471FB50AF04B
:1002D0001AFF01F069F90400002000210AF0AEFCC9
:1002E000401C6060002000210AF092FCE0601FBD0D
:1002F00010B510BD01F02AF91146FFF7E7FF08F02D
:100300005FF801F007FA03B4FFF7F2FF03BC01F056
:100310004BFA00002C4B19680868B0E8F04F80F3E6
:100320000988BFF36F8F4FF0000080F3118870478A
:100330000000000008480068006880F308884FF05B
:10034000000080F3148862B661B6BFF34F8FBFF32D
:100350006F8F00DF00BF00BF08ED00E0DFF80C008A
:10036000016841F470010160704700BF88ED00E052
:10037000EFF30980BFF36F8F134B1A681EF0100F55
:1003800008BF20ED108A20E9F04F106009B44FF04B
:10039000500080F31188BFF34F8FBFF36F8F09F0C8
:1003A00013FE4FF0000080F3118809BC196808683B
:1003B000B0E8F04F1EF0100F08BFB0EC108A80F3C9
:1003C0000988BFF36F8F704750000020EFF305805E
:1003D000704700000948804709480047FEE7FEE7EC
:1003E000FEE7FEE7FEE7FEE7FEE7FEE7FEE7FEE7E5
:1003F00004480549054A064B70470000C56B0008D4
:1004000089010008B84E0020B8540020B8500020E0
:10041000B850002053EA020C00F069802DE9F04B3F
:100420004FF00006002B1FBFB3FA83F503FA05F463
:1004300024FA05F65E4012BF1643B2FA82F502FABC
:1004400005F4C5F120051EBF22FA05FC44EA0C04A0
:10045000203556EA044C4FEA144418BF641C4FF090
:1004600000084FF00009904271EB030C39D30029CA
:1004700019BFB1FA81F701FA07F6B0FA80F700FA6E
:1004800007F6C7F120071EBF20FA07FC46EA0C0654
:100490002037B6FBF4FCA7EB0507103F07F01F0B56
:1004A000CBF120060CFA0BFB2CFA06F644BFB34640
:1004B0000026202FA4BF5E464FF0000B5BEA060C1F
:1004C00008BF4FF0010B19EB0B09ABFB027C48EBAB
:1004D0000608C01B06FB02CC0BFB03CC71EB0C0126
:1004E000C1E70B46024641464846BDE8F08B13B5CE
:1004F0004FF000004FF00001AFF30080BDE81C405A
:10050000704710B54C1084EA530404D54042C1F141
:10051000000138BF491E1B4204D55242C3F10003FB
:1005200038BF5B1EFFF776FF14F0804F04D04042C7
:10053000C1F1000138BF491E14F0004F04D05242EF
:10054000C3F1000338BF5B1E10BD00007CB51D4623
:1005500016460C00009001D02044401E074B7B44FF
:100560002A4669460190304600F06DF905461CB1F7
:100570000020694600F07AF928467CBD150300008A
:10058000032A40F2308010F0030C00F0158011F8BF
:10059000013BBCF1020F624498BF11F801CB00F897
:1005A000013B38BF11F8013BA2F1040298BF00F8EB
:1005B00001CB38BF00F8013B11F0030300F02580A8
:1005C000083AC0F0088051F8043B083A51F804CBCF
:1005D000A0E80810F5E7121D5CBF51F8043B40F895
:1005E000043BAFF30080D20724BF11F8013B11F8A0
:1005F00001CB48BF11F8012B24BF00F8013B00F8E4
:1006000001CB48BF00F8012B704710B5203AC0F06D
:100610000B80B1E81850203AA0E81850B1E8185003
:10062000A0E81850BFF4F5AF5FEA027C24BFB1E840
:100630001850A0E8185044BF18C918C0BDE81040B1
:100640005FEA827C24BF51F8043B40F8043B08BFBA
:100650007047D20728BF31F8023B48BF11F8012B81
:1006600028BF20F8023B48BF00F8012B70474FF02D
:10067000000200B5134694469646203922BFA0E8F2
:100680000C50A0E80C50B1F12001BFF4F7AF0907FE
:1006900028BFA0E80C5048BF0CC05DF804EB8900EF
:1006A00028BF40F8042B08BF704748BF20F8022B32
:1006B00011F0804F18BF00F8012B7047704770474A
:1006C000704710B500F0C2FA006810BD10B50446BE
:1006D00000F0BCFA046010BD70B50446856900687E
:1006E000C10601D5302600E02026C00707D070BD26
:1006F000D4E9012130469047206A401C20626D1EDB
:10070000F6D570BD70B5044685690078C00707D17D
:1007100070BDD4E9012120209047206A401C20624E
:100720006D1EF6D570BD09684A0501D540B2704707
:10073000C905FCD500B2704709684A0501D5C0B2A9
:100740007047C905FCD580B2704770B50C460546A8
:10075000012A05D02878800600D5EA69002302E046
:10076000012305E05B1C934202D2E05C0028F9D132
:10077000A869E618C01AA861286A184428622846A1
:10078000FFF7AAFF04E0D5E9012114F8010B904717
:10079000B442F8D32846FFF7B5FF70BD2DE9F0410C
:1007A0000646002410687529314616A510D0FFF7BB
:1007B000BAFF002802DA404213A507E031688A0731
:1007C00001D512A502E0490704D511A5012401E0D5
:1007D000FFF7B2FF00210A2206F1240709E0B0FB6F
:1007E000F2FCB0FBF2F302FB1C00303078541846E8
:1007F000491C0028F3D123462A463046BDE8F04183
:1008000000F06DBA000000002D0000002B00000079
:100810002000000011680268006A530501D50870C5
:100820000AE0D30501D5088006E0130603D5C217F8
:10083000C1E9000200E008600120704701694A1C1C
:1008400002610878704700B58FB0CDE90131002111
:10085000059105497944CDE903101146684600F039
:1008600031F90FB000BD0000E5FFFFFF0A6802F894
:10087000010B0A607047D1E900239A4202D2531C4F
:100880000B601070704700002DE9FF5F15468A4627
:100890000446DFF8AC80F8440027D8E900103E4653
:1008A000CDE9001010E03AF816106A4602A800F0F0
:1008B00029FE411C07D02178890603D5E269391841
:1008C00091420DD80744761C2078800602D5E06955
:1008D000B84205DDAE42E6DB3AF816000028E2D168
:1008E000A069C01BA0612046FFF7F6FED8E9001002
:1008F000CDE90010002017E03AF818106A4602A867
:1009000000F000FEB0F1FF3F81460BD000250DF155
:10091000080B05E0D4E901211BF8050090476D1C88
:100920004D45F7D308F10100B0428046E4DB206A70
:10093000384420622046FFF7E5FEBDE8FF9F000037
:1009400042AB00002DE9F0418046D21D22F00702A3
:100950000025D2E90002F52915A614D0011E72F176
:10096000000106DA0023D0EB030063EB020211A6BC
:1009700008E0D8F800108B0701D50FA602E0490760
:1009800001D50EA601251146002408F1240704E034
:1009900000F060F930323A55641C50EA0102F7D198
:1009A0002B46324621464046BDE8F04100F097B95B
:1009B000000000002D0000002B00000020000000BF
:1009C00030B4002100F1240408E002F00705D20849
:1009D000303542EA4372DB086554491C52EA03058C
:1009E000F3D10468002310A2250707D5A40600D47C
:1009F00021B1C46901230DA2641EC46130BC00F0A2
:100A00006EB910B5044621461068FFF795FE024600
:100A10002046BDE810400023D2E7D21D22F0070196
:100A2000D1E90023CCE70000000000003000000006
:100A3000F0B40D460188090502D5214C7C4402E042
:100A40001F4C7C440E34002100F1240608E002F023
:100A50000F071209E75D42EA03721B097754491C2C
:100A600052EA0307F3D102780023120704D5702D50
:100A700006D009B1022311342246F0BC00F02FB990
:100A800001231034F8E770B504460D46214610687E
:100A9000FFF752FE024629462046BDE8704000237B
:100AA000C6E7D21D22F00703D3E90023C0E703689D
:100AB000126843F0200303600823C3610023B7E7F3
:100AC000A4A900002DE9F05F894604464FF0000A12
:100AD000DFF874B1FB44C0F820A02046E1688847E5
:100AE000002874D0252806D0D4E901219047206A37
:100AF000401C2062F1E700265F462046E1688847F7
:100B00002028054607DB312D05D2781910F8200C76
:100B100008B10643F1E7B00701D526F00406C4F892
:100B20001CA00027C4F818A02A2D09D0284607F0D9
:100B300095F938B304EB8708303DC8F8185019E030
:100B400059F8041B204604EB87029161E16888474D
:100B5000012F054618D1E069002820DA26F020068A
:100B60001DE0D8F8180000EB800005EB400030389D
:100B7000C8F818002046E1688847054607F06EF976
:100B80000028EED1012F0AD02E2D08D12046E16891
:100B900088477F1C0546022F46F02006C4DBA0696B
:100BA000002803DA404246F00106A061F00701D0B8
:100BB00026F010066C2D0BD0682D09D04C2D39D0A5
:100BC0006A2D35D0742D35D07A2D33D016E038E02B
:100BD000E1682F4620468847B842054609D16C2F68
:100BE00026D04FF48060E1680643204688470546DA
:100BF00004E06C2F1AD04FF4807006430DB3A5F1BA
:100C00004100192802D8203546F400664A46294694
:100C1000204626604E46FFF711FB80B101280BD01D
:100C2000F61D26F0070000F1080956E74020E4E72A
:100C30008020D8E70020D6E706F104094DE72846D2
:100C400052E7206ABDE8F09F34A9000000487047D1
:100C5000544E002030B5B0F10A024FEA900E71F107
:100C600000034EEA817EB0EB0E0061EB91014FEA8A
:100C7000101E4EEA017E10EB0E0041EB11114FEAFF
:100C8000102E4EEA016E10EB0E0041EB11214FEADF
:100C9000104E4EEA014E10EB0E0041EB1141401890
:100CA00041F100014FEAD00040EA41704FEAD10122
:100CB00010EB80054FEA810444EA907444EB010490
:100CC0006D1944EB0404521BA3414FF0000348BFCD
:100CD0000A3200D530BD401C41F1000130BD2DE984
:100CE000F0470D4699469246044600F124080168F3
:100CF000880604D5E06921F01001216000E00120A0
:100D0000A84201DD471B00E00027A1697A1902EB28
:100D10000900081AA0612078C00602D42046FFF717
:100D2000DBFC002608E0D4E901211AF80600904710
:100D3000206A401C761C20624E45F4DB2078C006F9
:100D40000AD52046FFF7C8FC06E0D4E9012130208F
:100D50009047206A401C2062381EA7F10107F4DC8E
:100D600007E0D4E9012118F805009047206A401CEB
:100D70002062281EA5F10105F3DC2046FFF7C2FC26
:100D80002078000602D50220BDE8F0870120FBE7AD
:100D900070472DE9FF4F0C461E464FF0FF378BB0D2
:100DA000D2E90001DDF860800A908A46C1F30A5555
:100DB00005B93D46002108464FF00000BAF1000F8A
:100DC00000F4400005DA00EB80004FF4400101EA36
:100DD00050004FEA9059B9F1010F00DDB9460A9869
:100DE00050EA4A000ED044F61050A5F2FF354543B4
:100DF0002F14B8F1000F1ED07542291E1EDDC9F157
:100E000000021CE0B8F1010F4FF0000001D03021CA
:100E100003E0F24305E02154401CB042FBDB3046C6
:100E20000022002121540B99C1F80880C1E900205B
:100E30000FB0BDE8F08FBD1B6D1CDEE74A4600DA3F
:100E4000694206A800F0F4FB06AB93E8070003AB89
:100E500083E8070050460A9900F0ADFC8DE80700D2
:100E6000A0F500501F3800900398002D0ADD42F2D3
:100E70001F014A460844002303A90390684600F076
:100E800016FF09E0A0F500504A461F38002303A9C9
:100E90000390684600F020FF8DE807000004000C76
:100EA00003D04FF0FF30410800E01046B8F1000FCA
:100EB00003D00022009215461EE0751E05D4FFF7F0
:100EC000C9FE303262556D1EF9D5B3460122084382
:100ED00002D000227F1C04E02078302801D10022BB
:100EE0007F1E002A099784D01DE0112D07DAFFF735
:100EF000B1FE303262556D1C50EA0102F5D1084353
:100F000002D00098C8B10EE00021681E05E0235C05
:100F1000625C63542254401E491C8142F7DBAB469D
:100F2000A81B401E0990002004F80B000B98099A9A
:100F3000C0F80880C0E9002B7AE711264FF00008BE
:100F400057E72DE9F04F88460446D21D22F00701ED
:100F500091B0D1E90001CDE90A0106F00EFA02468E
:100F60000B98C00F01D02D2007E02068810701D524
:100F70002B2002E0202101EAC000032A099001D0C1
:100F8000072A05DB03464146204600F011FB0BE132
:100F90002078800601D5E06900E00620B8F1650FF1
:100FA000814606D0B8F1660F18D0B8F1670F70D13E
:100FB00031E00020B9F1110F009001DB112301E0B5
:100FC00009F101030AAA01A90CA8FFF7E2FEDDE975
:100FD0000C70002609F10105834647E001204B46CD
:100FE00000904FF000470AAA01A90CA8FFF7D1FE14
:100FF000DDE90DB00C995D46002610B909F101003C
:101000000D18B9EB050003D4C0F1FF3609F1010555
:10101000A5EB09002BE0B9F1010F01DA4FF001094E
:101020000020B9F1110F0090484601DD112300E0C6
:1010300003460AAA01A90CA8FFF7ABFEDDE90C7074
:101040004D4600268346207800070AD4AB4500DAD7
:101050005D4601A8012D04DD411911F8011C30295C
:1010600007D04F4502DA17F1040F04DA0120824657
:101070000FE06D1EEEE7002F02DCED1B3E4403E0A7
:10108000781CA84200DD7D1CB81B00F1010A4FF05E
:1010900000472078000703D4AA4501DB4FF0FF3A50
:1010A0000021B7F1004F0DF143088DF8431024D013
:1010B00002202B23002F01DA7F422D230A21021E5A
:1010C000A0F1010000DC5FB197FBF1FC97FBF1F2AE
:1010D00001FB1C7C17460CF1300C08F801CDEEE743
:1010E000A8F1010003702188090501D5452100E020
:1010F0006521A0F1010800F8011C09980FA9A1EBD6
:101100000807FF1D00B10120411901EBEA70A16938
:101110003844081A401EA0612078C00602D4204638
:10112000FFF7DAFA099828B1D4E901219047206A3B
:10113000401C20622078C00622D52046FFF7CCFA5A
:101140001EE0002E04DBB34502DD01A8805D00E057
:101150003020D4E901219047206A401C2062761C8F
:10116000AAF101005FEA000A0AD100F01DFAC06886
:101170000168405CD4E901219047206A401C20624C
:10118000281EA5F10105DCDC07E0D4E9012118F8EF
:10119000010B9047206A401C2062381EA7F101070E
:1011A000F3DC2046FFF7AEFA032011B041E6000061
:1011B0002DE9F04F04460D46D21D22F0070089B0FC
:1011C000D0E900974846394606F0D7F80246F80FAE
:1011D00001D02D2307E02068810701D52B2302E0F1
:1011E000202101EAC0038DF820300BB1012000E07E
:1011F0000020032A824601D0072A04DB2946204624
:1012000000F0D6F93FE12078800601D40D2500E0FA
:10121000E569C7F30A560D2D49DA00214FEA175B3D
:1012200008464FF00000002F00F4400007DA00EB02
:1012300080004FF4400100EBD07001EA600081159E
:10124000012901DD4FF0FF3100224FEA850CBCF18E
:10125000180F06D31346ACF118004FF08052C2406D
:1012600003E04FF4801323FA0CF30CF10C0CBCF1E7
:10127000200F04D3ACF1200C09FA0CF001E007FABE
:101280000CF000294FF0004801DD18B90FE00ED135
:1012900040450CD319EB02095F4121B9404502D109
:1012A0009F4329EA0209BBEB175F00D0761C208818
:1012B000000502D57B48784402E07A487844193822
:1012C00008AA302302F80A30037C0AF10101002E3B
:1012D0000AF1020A53546A4602DC4FF0300101E081
:1012E0004FF031014FF001088DF8001002D0A6F246
:1012F000FF3603E059EA470100D06B4E002D02DCB7
:101300002178090704D54FF002082E218DF801102D
:10131000C44600210BE0C7F303433F01C35C491CF3
:101320006D1E02F80830052908F1010801DA002DC8
:10133000F1DC00210CE000EB1973491C1B786D1ED9
:10134000082902F808304FEA091908F1010801DA02
:10135000002DF0DC21688B0602D516E0A8F101080B
:10136000E04505DD02EB080313F8013C302BF5D016
:10137000B8F1000F09DD02EB080313F8013C2E2B36
:1013800003D1090701D4A8F10108002D05DD3E2194
:1013900002F808106D1E08F10108407C002E02F8CA
:1013A000080008F1010804DA2D20764202F808004E
:1013B00002E02B2002F808000A214FF47A708642DE
:1013C00008F101080BDB96FBF0F3303302F808302C
:1013D00096FBF0F308F1010800FB136601E0642EB0
:1013E0000CDB642096FBF0F3303302F8083096FBF8
:1013F000F0F308F1010800FB136601E00A2E06DB9A
:1014000096FBF1F0303002F8080008F1010896FB75
:10141000F1F001FB1060303002F80800A16908F11A
:10142000010808EB050202EB0A00081AA061207807
:10143000C00602D42046FFF74FF9216A08AE01EB3F
:101440000A00206204E0D4E9012116F8010B90475C
:10145000BAF1010AF7D22078C00602D52046FFF77C
:101460003BF96E4609E016F8010B3E280FD0D4E98F
:1014700001219047206A401C2062B8F10108F2D295
:101480002046FFF73FF909B00320BDE8F08F206A3E
:101490002844206203E0D4E90121302090476D1EEA
:1014A000EBD3F8E776A1000002FCFFFF10B543691B
:1014B00013B1AFF3008001E0FFF747F9012010BD41
:1014C000127800F124010A7000224A700122EDE72F
:1014D00011684FF0FF32E9E710B5436913B1AFF37C
:1014E000008001E0FFF7D0F9012010BD128800F163
:1014F000240182840022C2840122EDE711684FF0AA
:10150000FF32E9E770B516460C46054600F044F890
:10151000036893F80101012806D0FF2C0FD8185D4D
:1015200068B101202C7070BDD3F807013246214606
:1015300003F2071303442846BDE8704018474FF0F4
:10154000FF3070BD00487047544E00207546FFF7CD
:10155000F9FFAE4605006946534620F00700854670
:1015600018B020B5FEF744FFBDE820404FF000065C
:101570004FF000074FF000084FF0000B21F007017B
:10158000AC46ACE8C009ACE8C009ACE8C009ACE8BE
:10159000C0098D467047000010B500F005F8001D29
:1015A00010BD00BF9996000000487047744E00209F
:1015B0002DE9F0411F46044603260168072A01F47D
:1015C000006004DB08B116A505E016A503E008B12C
:1015D00015A500E015A521F010002060A069C01E2F
:1015E000A0610FB1401EA0612046FFF775F84FB112
:1015F000D4E9012138469047206A401C2062C01C73
:10160000206206E0206AFAE7D4E9012115F8010B0F
:101610009047761EF8D22046FFF774F8BDE8F081B7
:101620004E414E006E616E00494E4600696E660086
:101630002DE9F047814616468AB0354878440DC8F2
:101640008DE80D0032487844801C03AC0DC884E856
:101650000D0041F69B300844372190FBF1F290FBDE
:10166000F1F5A5F1800501FB12041B3C02D5644293
:10167000012000E00020DFF898A080460027FA440F
:10168000AAF1BE0A0EE0E0070AD03246684607EB30
:10169000470101230AEB810100F01EFB8DE80700E2
:1016A00064107F1C002CEED1194F7F44AE3F19E02F
:1016B000E80715D007EB04100DF1180A90E80E00AA
:1016C0008AE80E00C068F04201D1981908903246AD
:1016D000012306A903A800F0FFFA03AB83E8070083
:1016E0006D10641C002DE3D14FF0010332466946B2
:1016F000B8F1000F03A802D000F0D9FA01E000F021
:10170000EBFAC9E90001C9F808200AB0BDE8F08782
:10171000809E000010B50446AFF300802046BDE86F
:101720001040FEF7F0BD00004FF0013C50F8042BD4
:1017300051F8043B9A4221D1A2EB0C03934313EAE4
:10174000CC1317D150F8042B51F8043B9A4215D111
:10175000A2EB0C03934313EACC130BD150F8042BE8
:1017600051F8043B9A4209D1A2EB0C03934313EACC
:10177000CC13DBD04FF00000704700BFD01A01BA85
:10178000B1FA81F101F0180122FA01F0CB40C1F168
:101790002001DBB2C0B2C01A2CFA01F3D11A914376
:1017A00011EAC311E6D1704701491820ABBEFEE72C
:1017B0002600020070475FEA400C08BF91F0000F5E
:1017C0004FEA8C234FEAC12243EA51514FEA1C50A1
:1017D00018BF00F5F0404FEA300018BF41F000415B
:1017E0005FEA6C5C00F02980BCF1FF3F08BF40F06D
:1017F00080407047130C06BF12044FF0100C4FF0DE
:10180000000C130E04BF12020CF1080C130F04BFDE
:1018100012010CF1040C930F04BF92000CF1020CA6
:10182000D30F04BF52000CF1010C11464FF000021F
:10183000A0F11F00A0EB0C00704711F0004F08BF93
:10184000704731F000413FF4D5AF0B0C06BF0904DF
:101850004FF0100C4FF0000C0B0E04BF09020CF1FE
:10186000080C0B0F04BF09010CF1040C8B0F04BF13
:1018700089000CF1020CCB0F04BF49000CF1010CE4
:10188000CCF12003A0EB0C0022FA03F302FA0CF2D5
:1018900041EA030100F10100704720F07F4C80EA2B
:1018A000030023F07F47ACEB070303F57C5300F004
:1018B000004003F1FF032DE980494FEA154B09B4BD
:1018C0004FEA144325EA0B4E24EA03480FF204269C
:1018D00006EB132749083E785FEA320203FB0667EE
:1018E000C7F5000707FB06F64FEA54374FEAD6461E
:1018F00006F1020607FB066CCCF1005C4FEA1C47C0
:101900002CEA074C07FB06F40CFB06F504EB154626
:101910004FEA961634BF00204FF000404FEAD1370F
:1019200006FB07FC4FEA1C4C0CFB0BF7D21B03FB1E
:101930000CF761EB07010CFB0EF7B0EB074072EB05
:1019400017420CFB08F734BFA2EB0742B2EB074289
:1019500061EB17414FEA0C444FEA910706FB07FC85
:101960004FEA1C4C0CFB0BF7B0EBC74072EB573245
:1019700003FB0CF734BFA2EBC742B2EBC74261EBEB
:1019800057310CFB0EF7B0EBC70072EB57720CFB34
:1019900008F734BFA2EBC702B2EBC70261EB577185
:1019A000039F4FEA816141EA921104EBCC044FEAB4
:1019B000D1374FEA826206FB07FC42EA90124FEAF7
:1019C00080604FEA1C4C0CFB0BF7D21B03FB0CF79F
:1019D00061EB07010CFB0EF7B0EB074072EB17420F
:1019E0000CFB08F734BFA2EB0742B2EB074261EBF6
:1019F00017414FEA8C554FEA910704EB9C2406FBF4
:101A000007FC4FEA1C4C0CFB0BF7B0EBC74072EB2A
:101A1000573203FB0CF734BFA2EBC742B2EBC7420D
:101A200061EB57310CFB0EF7B0EBC70072EB57724E
:101A30000CFB08F734BFA2EBC702B2EBC70261EBA5
:101A4000577115EB4C254FEA816141EA92114FEA3B
:101A500082624FEAD13742EA901206FB07FC44F15A
:101A600000044FEA80604FEA1C4C0CFB0BF7D21BC2
:101A700003FB0CF761EB07010CFB0EF7B0EB074023
:101A800072EB17420CFB08F734BFA2EB0742B2EB34
:101A9000074261EB174115EB1C154FEA813141EA12
:101AA00092414FEA823242EA90424FEA80304FEA56
:101AB0000C7644F1000448EA03434EEA0B484FF029
:101AC000000EB2EB080C71EB030724BF62463946E7
:101AD0004EEB0E0E4FF0000B0018524149414BEBFC
:101AE0000B0BB2EB080C71EB03077BF1000B24BF6F
:101AF000624639464EEB0E0E4FF0000B0018524175
:101B000049414BEB0B0BB2EB080C71EB03077BF17C
:101B1000000B24BF624639464EEB0E0E51EA020717
:101B200018BF46F0010616EB0E7655F1000254F18F
:101B3000000103D5BDE88901BDE80088BDE8890141
:101B4000BDE80048B619524141EB0101A3F1010380
:101B5000704780807F7E7D7C7B7A7978777676751A
:101B60007473727171706F6E6E6D6C6C6B6A6A6992
:101B70006868676666656464636362616160605F2C
:101B80005F5E5E5D5D5C5C5B5B5A5A5959585857A5
:101B9000575656555555545453535252525151500D
:101BA00050504F4F4F4E4E4D4D4D4C4C4C4B4B4B60
:101BB0004A4A4A49494948484847474747464646A6
:101BC00045454544444444434343434242424241E1
:101BD0004141002B9C4630D477002BD01CB54FEAF6
:101BE000370703B44FF010004FF01001BAF1000FA7
:101BF00006D0BCF1000FDCBF40F0080040F0080147
:101C00004FF000000FBCBDE810400BF1010BBBF121
:101C1000010F08BF5FEA170722BF12F1010211F19D
:101C200001014FF0004143F1000300F0004043EA9E
:101C300000007047F9D35708D0E746EA064613F18B
:101C4000400F4FEA16461FDD13F1200FDFBF16438A
:101C50000A46002120335B42BED0C3F1200746EA8A
:101C6000064602FA07F74FEA164646EA0706C3F1A8
:101C7000200722FA03F201FA07F721FA03F14FF0E5
:101C8000000342EA0702A7E746EA020646EA0646DA
:101C90004FEA164646EA0106BCBF46EA0646360C3F
:101CA0004FF000034FF000024FF0000194E72DE9E0
:101CB000804C9A46934670B491E8380007C831EAE0
:101CC000400C48BF34EA430C03D5FFF7E6FDFFF7AD
:101CD00080FFF0BCBDE8008C2DE9804C9A4693460D
:101CE00070B491E8380007C810F0804F08BF13F0B7
:101CF000804F03D100F005F8FFF76BFFF0BCBDE8A3
:101D0000008C20F07F4780EA030023F07F4C07EB34
:101D10000C03A3F57C5300F00040A3F1FE0392F006
:101D2000000F00F0B38095F0000F00F077802DE9F0
:101D300001494FEA11404FEA144621EA004800FBEE
:101D400006FC24EA064708FB06F607FB08F800FB3A
:101D500007F718EB06484CEB164C4FEA124B18EB02
:101D600007484FEA15464CEB174022EA0B4E0BFB97
:101D700006FC25EA06470EFB06F607FB0EFE0BFBEC
:101D800007F71EEB064E4CEB164C4FF000061EEB11
:101D9000074E4CEB174B18EB0B0840F1000018EB0B
:101DA0000E0B58EB000840F100008F1A4FF00001B5
:101DB0003CBFC943661B14BFB5EB040C00213CBFFC
:101DC000C943F61B4FEA17444EEA8E0E27EA044534
:101DD0004FEA1C4704FB07622CEA074C05FB07F798
:101DE0000CFB05F604FB0CFC16EB074642EB174216
:101DF00016EB0C4642EB1C421BEB060658EB0202AC
:101E0000414146EA9E0601D5BDE80189B619524115
:101E100041EB0101A3F10103BDE801894FEA14453B
:101E20004FEA114724EA054621EA074C05FB07F46F
:101E300006FB07F70CFB06F105FB0CFC11EB074159
:101E400044EB17444FEA124711EB0C4144EB1C449E
:101E500022EA074C05FB07F206FB07F70CFB06F628
:101E600005FB0CFC16EB074642EB174216EB0C4643
:101E700042EB1C456A1854F1000148BF7047B6197F
:101E8000524141EB0101A3F10103704795F0000FAE
:101E900037D04FEA11424FEA144721EA024624EABA
:101EA000074C02FB07F106FB07F70CFB06F402FBED
:101EB0000CFC14EB074441EB17414FEA154714EBB8
:101EC0000C4441EB1C4125EA074C02FB07F506FBDD
:101ED00007F70CFB06F602FB0CFC16EB074645EB7E
:101EE000174516EB0C4645EB1C42121951F1000147
:101EF00048BF7047B619524141EB0101A3F10103FC
:101F000070474FEA14454FEA114724EA054621EA93
:101F1000074C05FB07F106FB07F70CFB06F24FF039
:101F2000000605FB0CFC12EB074241EB174112EBDC
:101F30000C4251EB1C4148BF7047921841EB010124
:101F4000A3F1010370470000014800F0A5BB0000A9
:101F50006C040020464910B54A6822F440324A60B9
:101F60004A6843681A434A6001684A6822F48072EA
:101F70004A6001684A68036942EA03224A600168CC
:101F80004A6822F040724A6001684A6883681A43CE
:101F90004A6001688A6822F400628A6001688A687F
:101FA000C3681A438A60816A6FF07062D142016827
:101FB0008A6822F070628A6001688A680CD0836A3D
:101FC0001A438A6001688A6822F040528A60016878
:101FD0008A68C36A1A4301E022F040528A600168AD
:101FE0008A6822F002028A6001688A68037E42EAF7
:101FF00043028A6090F82010002901684A680FD0D7
:1020000042F400624A6001684A6822F460424A6011
:1020100001684A68174C436A04EB43331A4301E0F2
:1020200022F400624A600168CA6A22F47002CA623D
:102030000168CA6A838B104C04EB03531A43CA62CB
:1020400001688A6822F400728A6001688A6890F8E0
:10205000303042EA43228A6001688A6822F4806252
:102060008A6001688A68406942EA8020886010BD01
:102070000023014000E0FFFF0000F0FF2DE9F05FCA
:10208000834655485549564C00684FF0000AC21720
:10209000411842F1FF30A1FB012300FB0133B4F9E9
:1020A000105001FB0038A2FB0537EE1708FB057541
:1020B00002FB0659B4F90E50A5FB017CEE1706FB96
:1020C00001C605FB00656E0446EAD7367F04FB189F
:1020D00046EB09061AEB0309B4F90A30B4F90C50BF
:1020E000A2FB037C46EBC5054FEAE37608FB03C37E
:1020F00002FB0632B4F908604FEA1723A6FB01C8B9
:102100004FEAE67707FB018106FB00104FEA00313A
:1021100043EA02634FEA0C3041EA1C51181841EBC4
:102120002222001C42F50043E288A0FB027603FB5A
:10213000026200FB0A204210C31752EA030048D093
:10214000CBF58010C117C907C60741EA5001B6EBAD
:10215000090661EB050140F63545A6FB050C01FBC0
:1021600005C1002706FB0711FEF7CBF9B4F91630BD
:10217000420B42EAC142A3FB027CDD1705FB02C50C
:102180004E1303FB0653A7FB025C03FB02C207FBD3
:1021900006236A0E42EAC3125D16B4F91430A3FB9B
:1021A000007CDE1706FB00C603FB0166FB0C8018F3
:1021B00043EA46336941C01841EBE6414FEA10203B
:1021C00040EA0160B4F912104FEA01114018BDE86D
:1021D000F09F0020FBE70000B8000020000CFEFF8D
:1021E000104900200C4910B50A88C310B1F902400B
:1021F000C2EB20104043B1F904100013A3EB4203DB
:10220000484363430549DB1203EBA030086000EB51
:1022100080008030001210BD10490020B80000205E
:1022200030B50C462DED028B83B0054601A96846FA
:1022300000F072F80098FFF7D5FF08EE100A019839
:10224000FFF71CFF00EE100ADFED090A9FED091AE7
:10225000B8EE400A20EE200AF8EEC80AC0EE811A55
:10226000C5ED001A84ED000A03B0BDEC028B30BD51
:102270000000803B0000C84208B501226946D0201A
:1022800000F06CF89DF80000582801D0002008BD2F
:10229000B621E02000F08CF80A2000F0E1FC00F00C
:1022A0000BF88821F52000F083F85721F42000F086
:1022B0007FF8012008BD000000B587B018226946EC
:1022C000882000F04BF81348BDF800100180BDF8DD
:1022D00002104180BDF804108180BDF80610C18055
:1022E000BDF808100181BDF80A104181BDF80C103D
:1022F0008181BDF80E10C181BDF810100182BDF8BA
:1023000012104182BDF814108182BDF81610C182EE
:1023100007B000BD104900207CB50D4604460622DA
:102320006946F72000F01AF89DF800009DF80110AA
:10233000000340EA01109DF8021040EA11102860E5
:102340009DF803009DF80410000340EA01109DF879
:10235000051040EA111020607CBD00002DE9F84313
:1023600040F08000104E144688468DF800004FF46F
:10237000805500222946304600F0ADFD4FF0FF3772
:102380003B4601226946094801F096FB3B4622463E
:102390004146064801F0E4FA01222946304600F0A1
:1023A0009AFDBDE8F8830000000402406C0500209F
:1023B00038B500F07F008DF800000B4D8DF801104E
:1023C0004FF4805400222146284600F084FD4FF04F
:1023D000FF3302226946054801F06EFB01222146C7
:1023E000284600F078FD38BD000402406C0500204E
:1023F000FEE70000014800F0C1BA0000E40600203A
:10240000014800F0BBBA000084060020014800F03B
:10241000B5BA0000780B0020014800F0AFBA000008
:10242000180B0020014800F0A9BA00002406002083
:10243000014800F0A3BA0000580A0020014800F04B
:102440009DBA0000C4050020014800F097BA0000C2
:10245000B4040020014800F091BA0000B80A00203E
:1024600001681823CAB2103AB2FBF3F2054B6FF3BE
:102470000901032A9B5CC36500D9091D81650846D3
:10248000704700005CB1000810B5014600208B6960
:102490008A6A4FF0C07453B1B3F5005F15D072B1C2
:1024A000012A0CD0022A0AD0032A09D104E01AB169
:1024B000012A06D0022A03D1C96AC90100D5012028
:1024C00010BDC96AA142FAD010BD002AF7D0012A76
:1024D000F2D0022AF3D0032AF3D010BD30B504683D
:1024E000256825F480252560046863608368402B97
:1024F000036803D099600068C26030BD9A600068CC
:10250000C16030BD7047012000F0DCBB022000F04C
:10251000D9BB72B6FEE7000001B582B000208DF88D
:1025200004000A200090012301AA02A9044801F036
:1025300076FB08B1FF200EBD9DF804000EBD000023
:102540006C0500207047000078B50024009490F8D6
:102550003C20012A19D0012280F83C200A68072378
:102560000568092A13D9EE680A3A02EB4202934041
:102570009E43EE600B788A680A3B03EB43039A4064
:102580000368DD682A43DA6010E0022078BD2E6916
:1025900002EB420293409E432E610B788A6803EB64
:1025A00043039A4003681D692A431A614A681F233E
:1025B000072A13D205686E6B521E02EB820293400B
:1025C0009E436E630B790A885B1E92B203EB830312
:1025D0009A4003685D6B2A435A6327E005680D2A19
:1025E00012D22E6BD21F02EB820293409E432E63C7
:1025F0000B790A88DB1F92B203EB83039A400368CE
:102600001D6B2A431A6311E0EE6A0D3A02EB820257
:1026100093409E43EE620B790A880D3B92B203EB26
:1026200083039A400368DD6A2A43DA62164B056821
:10263000144A9D4206D10D68122D03D1556845F408
:102640008005556005689D4218D10B68102B01D09C
:10265000112B13D1536843F4000353600968102908
:102660000CD10A490A4A0968B1FBF2F101EB810178
:10267000490000E0491E00910029FBD180F83C4050
:10268000002078BD00230140002001404C000020C4
:1026900040420F007047704770B5044600680668F6
:1026A000456816F0020F05F020012AD049B3216CCD
:1026B000C90603D4216C41F400712164816811F0D2
:1026C000405F17D1217EA9B9C16A11F4700F02D001
:1026D000816849050ED4416821F020014160206CD9
:1026E00020F480702064206CC00403D4206C40F07F
:1026F000010020642046FFF7CDFF21686FF0120033
:10270000086016F0040F05F0800132D089B3206C08
:10271000C00603D4206C40F4005020642068816817
:1027200011F4401F1ED1816B11F4401F02D081684B
:10273000490517D44168490514D4816811F0405FF8
:1027400010D1217E71B9416821F080014160206C77
:1027500020F480502064206CC00503D4206C40F02D
:10276000010020642046FFF7EDFE21686FF00C00A9
:10277000086016F0010F05F040010FD071B120681C
:102780000068C0070AD0206C40F4803020642046E6
:1027900000F043F821686FF00100086016F0200F88
:1027A00005F080610ED000290CD0606C40F0020072
:1027B000606420686FF0200505602046FFF76BFF1E
:1027C0002068056070BD70B504004FF0000503D0AF
:1027D000206C002610B107E0012070BD204600F0FB
:1027E0001DF8666484F83C60206CC00610D4206C30
:1027F00020F4885040F0020020642046FFF7AAFB36
:102800006664206C20F0020040F00100206400E0CB
:10281000012584F83C60284670BD704770B586B0CD
:10282000064614216846FDF722FF21493068884298
:102830003CD120480025016841F4807101600068A6
:1028400000F4807005901B481438016841F00101C4
:1028500001600068694600F00100059002200090C8
:102860000320CDE90105144800F038FA144C134850
:10287000C4E900050015A560C4E90350400060618B
:102880008000A0614011C4E907052046656200F0A0
:1028900045F908B1FFF73DFEB4630022092112207B
:1028A000A66300F0BBFB122000F0AAFB06B070BDCF
:1028B00000200140443802400000024070640240A1
:1028C000B40400202DE9F0410446876D00F008FBB8
:1028D000064694F835000025022806D08020606561
:1028E00084F834500120BDE8F0812068016821F0AF
:1028F000160101602068416921F080014161206C6E
:1029000008B9A06C20B12068016821F008010160BD
:102910002068016821F0010101600CE000F0E0FA9C
:10292000801B052807D920206065032084F8350026
:1029300084F83450D7E720680068C007EED194F8D7
:102940005C103F208840B860012084F8350084F88E
:1029500034500020C7E790F83510022903D08021B9
:10296000416501207047052180F835100068016835
:1029700021F0010101600020704700002DE9F843BB
:1029800004464FF00009CDF8009063484FF416510B
:10299000A56D0068B0FBF1F72E6894F85C10082074
:1029A00000FA01F131420FD021680A6852070BD5B5
:1029B0000A6822F004020A6094F85C108840A8605B
:1029C000606D40F00100606594F85C104FF0010804
:1029D00008FA01F0304208D021684969090604D597
:1029E000A860606D40F00200606594F85C100420FF
:1029F0008840304208D021680968890704D5A8605A
:102A0000606D40F00400606594F85C101020884010
:102A1000304218D021680968090714D5A8602068D9
:102A20000168490304D50068000308D5A16C07E0DC
:102A30000168C90503D4016821F008010160216C17
:102A400009B12046884794F85C1020208840304225
:102A500031D021680968C9062DD5A86094F83500E1
:102A600005282068016806D0490347D5006800039F
:102A70001DD4616C1CE021F01601016020684169E1
:102A800021F080014161206C08B9A06C20B1206860
:102A9000016821F00801016094F85C103F20884033
:102AA000A86084F8358084F83490216D1FE0E16BD4
:102AB00009B120468847606D00282BD0606DC007A3
:102AC00014D0052084F835002068016821F0010148
:102AD00001600098401C0090B84203D8206800684C
:102AE000C007F6D184F8358084F83490E16C002971
:102AF00010D001B02046BDE8F04308470168C90581
:102B0000D5D4016821F01001016084F8358084F883
:102B10003490CCE7BDE8F8834C0000202DE9F0416B
:102B2000044600F0DDF906465CB1022084F8350069
:102B3000002584F834502068016821F0010101600B
:102B40000DE00120BDE8F08100F0CAF9801B0528E6
:102B500005D920206065032084F83500F2E720685D
:102B60000068C007F0D12268116820480140D4E90C
:102B700001031843D4E90336334318436369184308
:102B8000A3691843E3691843236A18430843616A39
:102B9000042903D1D4E90B131943084310602068BA
:102BA0004069666A20F0070130460E430127042879
:102BB0000CD1A06A0643E06A40B12046FFF764FCEE
:102BC00020B14020606584F83570BAE7206846611E
:102BD0002046FFF745FC94F85C203F21914081603E
:102BE000656584F835700020ACE700003F8010F088
:102BF0002DE9F0410446866D90F834000025012847
:102C00000DD0012084F8340094F835700020012F95
:102C100007D084F8340002252846BDE8F081022060
:102C2000FBE7022784F8357060652046FFF756FC05
:102C300094F85C103F208840B0602068016841F043
:102C400016010160206C20B12068016841F0080184
:102C500001602068016841F001010160DCE70000CB
:102C600070B5044600F03CF90546601C02D00448EB
:102C70000078044400F034F9401BA042FAD370BD40
:102C80004000002008B500210091012812D0022840
:102C90000FD10A486946006807F0D2FB0098002867
:102CA00007D007494FF080500860BFF34F8FBFF344
:102CB0006F8F08BD05F0DEF908BD0000040000209C
:102CC00004ED00E0044910B50A68024202D0086031
:102CD000FFF7D8FF10BD0000143C01402DE9F84F6C
:102CE000DFF8BCA10022012503264FF00F090AF1ED
:102CF000040BAAF1040E00BF0B6805FA02F423408E
:102D0000A34270D10F7907F00307012F01D0022FE2
:102D100016D187684FEA420806FA08FC27EA0C0732
:102D2000D1F80CC00CFA08FC4CEA070CC0F808C03B
:102D30004768A7430C79C4F3001494403C434460B3
:102D40000C79E443A4070AD0C4684FEA420C06FA9F
:102D50000CF7BC438F6807FA0CF72743C7600C7960
:102D600004F00304022C12D1D40800EB840CDCF82C
:102D700020405707FF0E09FA07F824EA0804D1F8A3
:102D8000108008FA07F848EA0408CCF820800468A4
:102D90004FEA420C06FA0CF7BC430F7907F0030721
:102DA00007FA0CF7274307604C6814F4403F70D0D3
:102DB0003C4C276847F480472760246822F00307CB
:102DC00004F480440094384C07EB040CDCF8084809
:102DD00097074FEA177809FA08F7BC43334FB84210
:102DE00002D1002724E054E0314FB84201D101273D
:102DF0001EE0304FB84201D1022719E02E4FB842F1
:102E000001D1032714E02D4FB84201D104270FE070
:102E10002B4FB84201D105270AE02A4FB84201D111
:102E2000062705E0284FB84201D1072700E0082710
:102E300007FA08F72743CCF80878DAF80040574635
:102E4000D1F804C09C435FEACC2C00D51C433C6005
:102E5000DBF800405F46D1F804C09C435FEA8C2C4D
:102E600000D51C433C60DEF800407746D1F804C032
:102E70009C435FEA8C3C00D51C433C60084F083FF4
:102E80003C68D1F804C09C435FEACC3C00D51C43AD
:102E90003C60521C102AFFF42FAFBDE8F88F0000F1
:102EA000083C01404438024000300140000002402C
:102EB0000004024000080240000C024000100240E2
:102EC0000014024000180240001C02400069084043
:102ED00000D0012070470AB1816170470904FBE707
:102EE0000148806870470000400000200248816867
:102EF0000278114481607047400000200B4810B5F3
:102F0000016841F400710160016841F48061016071
:102F1000016841F480710160032000F09FF80F20E8
:102F200000F006F800F050F8002010BD003C024010
:102F300030B505461F4887B00024016841F01001F4
:102F40000160006806A900F01000009001A800F0E0
:102F500031F90498A8B100F04DF940001649174A1C
:102F6000B0FBF1F11648491E026040F2E732C0E9B9
:102F70000324C0E90114846101F0BEF8040003D009
:102F800015E000F037F9E9E70D4801F00FF904000A
:102F90000DD1362000F034F8102D07D2002229463A
:102FA000362000F03BF80748056000E0012407B038
:102FB000204630BD4038024040420F000010004023
:102FC000D80B0020440000200C4882B0016841F476
:102FD00080410160006800F4804000900748001FB5
:102FE000016841F0805101600068002200F08050CB
:102FF00000900F21901E02B000F010B8443802403B
:10300000002809DB00F01F020121914040098000E7
:1030100000F1E020C0F8001170470000F0B40E4B42
:103020001B680C46C3F30223C3F10705042D00D926
:103030000425191D072901D2002300E0DB1E01260B
:1030400006FA05F1491E214099409E40761E164021
:103050003143F0BC04F0BCB90CED00E0064900F0CF
:10306000070208684FF6FF03184040EA0220034AAF
:1030700010430860704700000CED00E00000FA0506
:103080002DE9F0470E46050065D0DFF81481D8F829
:103090000000F7B200F00700B04207D288F80070D5
:1030A000D8F8000000F00700B04254D128683D4C29
:1030B000810712D5400703D5206840F4E050206016
:1030C0002878000703D5206840F46040206020681D
:1030D000A96820F0F000084320602878C0072DD0B0
:1030E000304968680839012812D0022813D0032813
:1030F00011D00968890700292DDA216821F0030120
:1031000001432160FFF7ECFE814641F2883A0EE070
:1031100009688903EFE709688901ECE7FFF7E0FE3A
:10312000A0EB0901514502D90320BDE8F0872068D2
:10313000696800F00C00B0EB810FEFD1D8F80010F7
:10314000404601F00701B14207D90770006800F05E
:103150000700B04201D00120E7E72878400705D5F5
:103160002068E96820F4E0500843206028780007D0
:1031700006D52068296920F4604040EAC10020603B
:1031800000F058F82168084AC1F30311515CC840A7
:103190000649086006480068FFF7CAFE0020C4E739
:1031A000003C02400838024064B100084C00002096
:1031B000440000200F2202600C4A136803F003034E
:1031C0004360136803F0F0038360136803F4E05373
:1031D000C36012684FF4E05303EAD202026104486C
:1031E000006800F0070008607047000008380240DF
:1031F000003C02400448054900680968044AC1F3DC
:103200008221515CC84070474C00002008380240C1
:1032100074B100080448054900680968044AC1F30C
:103220004231515CC84070474C00002008380240D1
:1032300074B10008154810B5006810F00C0214486D
:1032400013D04110042A0FD0082A0ED10F4C241F8E
:103250002268236802F03F025B0207D52068C0F3B2
:103260008810A0FB010106E0084610BD2168C1F3EB
:103270008811A1FB00010023FDF7CCF82168C1F300
:103280000141491C4900B0FBF1F010BD0838024073
:103290000024F4002DE9F84F04006ED02078DFF808
:1032A0004C93C007A9F104054AD009F10400016854
:1032B000C1F38101012908D00068C0F38100022810
:1032C0000AD1D9F80000400206D52868800337D516
:1032D00060680028E1D033E06068B0F5803F10D02E
:1032E000B0F5A02F286810D020F48030286028681E
:1032F00020F4802028606068A8B1FFF7F1FD064641
:103300000DE0286840F48030F4E740F48020286025
:10331000F7E700BFFFF7E4FD801B642873D8286837
:103320008003F7D50CE0FFF7DBFD064605E000BFA4
:10333000FFF7D6FD801B6428F0D828688003F7D4F7
:103340002078DFF8AC8280074FF0000A3ED5A7480E
:10335000001D016811F00C0F08D00068C0F3810057
:1033600002280BD1D9F80000400207D42868800752
:1033700016D5E068012800D112E033E1E068B8B169
:103380000120C8F80000FFF7ABFD064605E000BFCE
:10339000FFF7A6FD801B0228C0D828688007F7D554
:1033A0002868216920F0F80040EAC10028600DE09B
:1033B000C8F800A0FFF794FD064604E0FFF790FD73
:1033C000801B02281FD828688007F7D420780007C0
:1033D00022D5864F87486169703771B1012101603C
:1033E000FFF77EFD064604E0FFF77AFD801B02280A
:1033F00009D838688007F7D50EE0C0F800A0FFF7BD
:103400006FFD064605E082E0FFF76AFD801B02289B
:103410007DD838688007F7D42078400768D5DFF872
:10342000CCB100270BF13C0BDBF80000C0000BD443
:10343000DBF8001041F08051CBF80010DBF8000001
:10344000012700F0805000906B4E3068C00510D40A
:10345000306840F480703060FFF742FD009005E076
:10346000FFF73EFD0099401A022850D83068C00589
:10347000F6D55E4EA0686C3601280FD0052830685E
:1034800010D020F001003060306820F0040030607F
:10349000A068B8B1FFF724FD00900FE0306840F05D
:1034A0000100F4E740F004003060F7E7FFF718FD93
:1034B0000099411A41F28830814266D8306880070D
:1034C000F4D50EE0FFF70CFD009007E0FFF708FDD4
:1034D0000099411A41F28830814256D830688007FD
:1034E000F4D42FB1DBF8001021F08051CBF800109C
:1034F000A069C8B33D49091D0968C1F381010229CA
:103500004AD00228504607D0C8F8600000E03CE0EE
:10351000FFF7E6FC04463BE04746C8F86000FFF7CB
:10352000DFFC064605E000BFFFF7DAFC801B02283F
:103530002BD828688001F7D4D4E907010843A16A91
:103540002E4A490802EB0141626A41EA82110843AE
:1035500094F82C1040EA0161C9F800100120386687
:10356000FFF7BEFC044606E03EE000BFFFF7B8FCF4
:10357000001B022809D828688001F7D534E000BF75
:10358000FFF7AEFC001B022802D90320BDE8F88F2C
:1035900028688001F4D427E00128F7D0D9F800008A
:1035A000E26900F4800191421CD1226A00F03F01DF
:1035B000914217D147F6C071626A0140B1EB821F98
:1035C00010D1A26A4FF0FF3300F4403103EB5202F6
:1035D000B1EB024F06D194F82C1000F07060B0EB04
:1035E000016F01D00120D1E70020CFE7043802406D
:1035F00000004742800E4742007000400000FFFF7D
:10360000704790F85100704738B5016804464A6821
:103610008868C043430606D5C30704D1D3435B067D
:1036200001D4216C05E0830708D4D3431B0605D4DD
:10363000616C01B02046BDE830400847830603D5E1
:10364000430601D5C30551D4D3439B064ED443064C
:103650000AD494F85130032B49D0636D43F004032E
:103660006365CB688B680093830609D4636D43F070
:10367000010363658B6800930B6823F040030B60C4
:10368000C00506D4606D40F0080060652068806861
:103690000090606D002829D02068416821F0E00189
:1036A0004160012084F85100900701D4D00722D056
:1036B0002068416821F003014160114DE06C40B188
:1036C0000565E06CFFF747F918B1606D40F0400008
:1036D0006065A06C002809D00565A06CFFF73BF978
:1036E000002803D0606D40F04000606538BDC868B8
:1036F0008868009038BD2046FFF782FF38BD000083
:10370000E55C000870B5040009D0606A002540B18E
:1037100025616561A56294F8510040B10CE001207B
:1037200070BD6068B0F5827FF4D0E561F2E784F89F
:103730005050204600F044F8022084F851002068E0
:10374000016821F040010160A088218900F48270A5
:1037500001F404410843A18901F400610843217C7C
:1037600001F002010843217D01F001010843218B92
:1037700001F400710843217F01F03801084394F8F7
:10378000201001F080010843218D01F4005108430D
:1037900021680860A069042101EA104094F824100F
:1037A00001F010010843216848602068C16921F4D4
:1037B0000061C1616565012084F85100002070BD81
:1037C0002DE9F04387B0044614216846FCF74FFF0B
:1037D000DFF868C126685A480221032205234027E2
:1037E00000254FF48069664550D1554E1436D6F801
:1037F00000C04CF4805CC6F800C0366806F4805601
:103800000596066846F001060660006800F00100B3
:103810000590E0208DE8230069464A48CDE903235E
:10382000FFF75CFA494E48484FF0C068C6E9027598
:10383000C6E90495B561F56135627562C6E90008AF
:103840004F463046FFF76AF908B1FEF762FEA664FC
:10385000B4633E4E3C48603648383060C6E9018566
:10386000C6E903577561B561F56135623046756229
:10387000FFF754F908B1FEF74CFEE664002205217B
:103880002320B463FFF7CAFB232051E0DFF8C0C058
:1038900066454FD12A4E1036D6F800C04CF4804C05
:1038A000C6F800C0366806F480460596066846F0FD
:1038B00002060660006800F0020005904FF46040C8
:1038C0008DE8230069462348CDE90323FFF706FA74
:1038D0001E4E2148C03686E8A100C6E9035975612D
:1038E000B561F56135624F4630467562FFF716F9EE
:1038F00008B1FEF70EFEA664B4631748174E1838D9
:10390000C6E90005B560C6E903577561B561F561A3
:10391000356230467562FFF701F908B1FEF7F9FD2F
:10392000E664002206212420B463FFF777FB2420FD
:10393000FFF766FB07B0BDE8F083000000300140F0
:10394000303802400000024058640240C4050020A4
:10395000003800400004024070600240E40600208D
:103960002DE9F84F044690F851001D4616460F46C3
:10397000012838D1002F77D0002E75D060684FF025
:103980000408B0F5827F01D1A06810B3FFF7A8FA50
:10399000824694F85000012825D04FF0010984F8A0
:1039A000509084F851804FF00008C4F85480A76309
:1039B000A687E687C4F83080A4F83480A4F836805F
:1039C000C4F84080C4F84480A068B0F5004F0CD023
:1039D00015E084F85180009313460A46204600F013
:1039E0001EF9BDE8F88F0220FBE72068016821F08E
:1039F000400101602068016821F480410160206875
:103A00000168490603D4016841F040010160E068A3
:103A1000C0B134E020688168C90709D0007BA16B80
:103A20000870A06B401CA063E08F401EE08709E097
:103A3000FFF756FAA0EB0A00A84202D3681C01D097
:103A400032E085B3E08F0028E4D11BE02068816874
:103A5000C9070AD0C068A16B0880A06B801CA06356
:103A6000E08F401EE0870AE01BE0FFF739FAA0EB89
:103A70000A00A84202D3681C01D015E09DB1E08F76
:103A80000028E3D152462946204602F0E7F908B162
:103A90002020606584F8519084F85080606D002883
:103AA0009FD001209DE7FFE784F8519084F8508073
:103AB000032096E7704770472DE9F84F9846164661
:103AC0008A460446FFF70CFA814694F85100012813
:103AD0001ED1BAF1000F73D0002E71D094F85000AF
:103AE000012815D0012784F85070032084F8510074
:103AF00000256565C4F830A0A686E686A563A5877F
:103B0000E58765642564A068B0F5004F03D00CE03C
:103B10000220BDE8F88F2068016821F040010160B3
:103B20002068016841F4804101602068016849060D
:103B300003D4016841F040010160E068B0F5006F16
:103B4000606803D048B3012E27D047E008B1012EAA
:103B50001FD1206B21680088C86006E0206881685A
:103B6000890709D5216B0988C160206B801C2063FF
:103B7000E08E401EE0860CE0FFF7B2F9A0EB0901F1
:103B8000414503D3B8F1FF3F03D035E0B8F1000F52
:103B900032D0E08E0028E1D123E0206B216800784C
:103BA000087306E02068816889070AD5216B0978C7
:103BB0000173206B401C2063E08E401EE0860DE008
:103BC0002BE0FFF78DF9A0EB0901414503D3B8F1D4
:103BD000FF3F03D010E0B8F1000F0DD0E08E0028B9
:103BE000E0D14A464146204602F066F908B120205D
:103BF0006065A06830B109E084F8517084F85050D5
:103C0000032086E72068C1688068009084F85170BE
:103C100004F8505F60680028F3D0012079E72DE9AF
:103C2000FF4F81B01D46934604464FF001090E9E9A
:103C3000FFF756F9074694F851006168012806D04D
:103C4000B1F5827F3CD1A168C9BB042838D1029864
:103C5000002871D0BBF1000FFBD0002DF9D094F8F3
:103C6000500001282CD04FF0010A84F850A094F89D
:103C70005100042802D0052084F851004FF00008BC
:103C8000C4F85480C4F838B0E587A5870299216349
:103C9000E586A586C4F84080C4F8448020680168A1
:103CA000490603D4016841F040010160E068B0F5C5
:103CB000006F606808D0F0B3012D49D081E0FFE7C4
:103CC000022005B0BDE8F08F08B1012D39D1206B7D
:103CD00021680088C860206B801C2063E08E401E35
:103CE000E0862EE02068816889070FD5E18E69B1F2
:103CF000B9F1010F0AD1216B0988C160206B801CCA
:103D00002063E08E401EE0864FF000092068816845
:103D1000C9070CD0E18F51B1C068A16B0880A06BBE
:103D2000801CA063E08F401EE0874FF00109FFF781
:103D3000D7F8C01B01E00BE067E0B04201D3701C74
:103D400050D1E08E0028CDD1E08F0028CAD13EE0CE
:103D5000206B216800780873206B401C2063E08E84
:103D6000401EE0862DE02068816889070FD5E18E2E
:103D700069B1B9F1010F0AD1216B09780173206B88
:103D8000401C2063E08E401EE0864FF00009206852
:103D90008168C9070CD0E18F51B1C068A16B087070
:103DA000A06B401CA063E08F401EE0874FF001092C
:103DB000FFF796F8C01BB04202D3701C01D011E08F
:103DC00086B1E08E0028CED1E08F0028CBD13A46D4
:103DD0003146204602F070F850B12020606584F82A
:103DE000508012E084F851A084F85080032068E7E6
:103DF000A06818B92068C1688068009084F851A054
:103E000084F85080606D0028F1D0012059E700004F
:103E100070B5044690F851006568012806D0B5F5E4
:103E2000827F3AD1A568A5BB042836D191B38AB365
:103E300083B394F8500001282FD0012084F850005B
:103E400094F85100042802D0052084F85100002580
:103E500065652163A386E386A263A387E387256460
:103E6000656494F85100042819D0E16C274808646F
:103E70002748E16CC863E16C2648C864E06C0565BE
:103E8000E38F2168A26B0C31E06CFEF7B1FE00BB42
:103E90000AE002E0FFE7012070BD022070BDE16C86
:103EA0001D4808641D48E4E72068416841F00101AD
:103EB0004160A06C0564A06CC563A06CC564A06C77
:103EC0000565E38E2268216B0C32A06CFEF790FE34
:103ED00030B1606D40F01000606584F85050DAE752
:103EE00020680168490603D4016841F0400101607F
:103EF00084F850502068416841F0200141602068FA
:103F0000416841F002014160002070BD2B5D000856
:103F1000035E0008F55C0008175D0008355D0008C9
:103F200070B5044690F8510001281CD1C9B1C2B146
:103F300094F85000012816D0012084F85000032086
:103F400084F85100002565652163A286E286A56399
:103F500065642564A587E587A068B0F5004F04D0A7
:103F60000DE0012070BD022070BD2068016821F0C5
:103F7000400101602068016841F480410160A16C4A
:103F800017480864A16C1748C863A16C1648C86438
:103F9000A06C0565E38E2268216B0C32A06CFEF7E5
:103FA00027FE30B1606D40F01000606584F850501D
:103FB000D7E720680168490603D4016841F0400151
:103FC000016084F850502068416841F02001416050
:103FD0002068416841F002014160002070BD00008E
:103FE000215D00089F5D0008F55C00087047704780
:103FF0000449884204D1012210210348FEF76BBF17
:104000007047000014050020000002407047704710
:10401000704710B590F83C20012A22D0012280F888
:104020003C20CA688C6822F4407222434C6822F417
:10403000806222430C6822F4006222430C6922F45D
:10404000805222434C6922F400522243C969002362
:1040500022F480420A4301684A6480F83C30002020
:1040600010BD022010BD000070B590F83C20012A60
:1040700032D0012480F83C40022280F83D200368C1
:104080005A689D6822F070060A6832435A60134BE2
:1040900002689A4214D0B2F1804F11D0104B9A426C
:1040A0000ED0104B9A420BD00F4B9A4208D00F4BB8
:1040B0009A4205D00E4B9A4202D00E4B9A4204D13E
:1040C000496825F080031943916080F83D40002144
:1040D00080F83C10084670BD022070BD0000014011
:1040E0000004004000080040000C004000040140B3
:1040F000004001400018004010B5040003D094F8BF
:104100003D0010B107E0012010BD002084F83C0004
:10411000204600F01FF8022084F83D00211D206891
:1041200002F084FD012084F8460084F83E0084F803
:104130003F0084F8400084F8410084F8420084F88D
:10414000430084F8440084F8450084F83D000020D2
:1041500010BD000008B500681149884212D111480D
:10416000016841F0020101600068002200F00200D5
:10417000009005211D20FEF751FFBDE808401D20DD
:10418000FEF73EBF0849884209D10648001D016874
:1041900041F002010160006800F00200009008BDDB
:1041A00000040040403802400004014090F83D10F7
:1041B000012901D001207047022180F83D100168DB
:1041C000CA6842F00102CA6000681149884214D0EE
:1041D000B0F1804F11D00F4988420ED00E4988426D
:1041E0000BD00E49884208D00D49884205D00D49B0
:1041F000884202D00C49884204D1816801F007014D
:10420000062903D0016841F00101016000207047D8
:10421000000001400004004000080040000C004085
:1042200000040140004001400018004070B5044601
:1042300090F83C000025012817D0012684F83C6046
:10424000022084F83D002068826822F0770222F480
:104250007F4282600868502838D00DDC20284FD07B
:1042600005DC90B3102811D14AE0022070BD30283F
:1042700046D040280AD13BE060282FD070280DD0CE
:10428000B0F5805F03D0B0F5005F12D0012584F84F
:104290003D60002084F83C00284670BDCB68D1E921
:1042A0000121206802F037FD2068816841F0770124
:1042B00009E0CB68D1E90121206802F02CFD2068DB
:1042C000816841F480418160E1E719E0CA6849688A
:1042D000206802F0F5FD5021206806E0CA684968B0
:1042E000206802F0FEFD6021206802F01EFDCEE78E
:1042F000CA684968206802F0E3FD40212068F4E7BD
:10430000226801461046F0E770472DE9F041044667
:104310000068C66805694FF00007A90713D5B10703
:1043200011D5F91E0161012020772068806980077E
:10433000204602D0FFF7E8FF04E000F0A9F820468D
:1043400000F03BF92777680716D5700714D5216868
:104350006FF004000861022020772068806910F463
:10436000407F204602D0FFF7CFFF04E000F090F836
:10437000204600F022F92777280715D5300713D5F6
:1043800021686FF008000861042020772068C06968
:104390008007204602D0FFF7B7FF04E000F078F86E
:1043A000204600F00AF92777E80616D5F00614D55E
:1043B00021686FF010000861082020772068C0692C
:1043C00010F4407F204602D0FFF79EFF04E000F08B
:1043D0005FF8204600F0F1F82777E80708D0F007EB
:1043E00006D021686FF001000861204600F04AF90C
:1043F000280608D5300606D521686FF080000861D0
:104400002046FFF704FE680608D5700606D5216829
:104410006FF040000861204600F04AF9A8060AD56E
:10442000B00608D521686FF0200008612046BDE87D
:10443000F041FFF7EDBDBDE8F081000010B586B09A
:10444000044614216846FCF712F90E492068884298
:1044500016D10D480021026842F004020260006893
:1044600000F0040005904FF4707000900220CDE938
:1044700001010320CDE9031069460448FEF72EFC34
:1044800006B010BD00040140303802400008024070
:10449000704770B5044690F83C0000260D46012890
:1044A0000FD0012084F83C006AB1042A1DD0082AEC
:1044B0002FD00C2A3FD00126002084F83C00304643
:1044C00070BD022070BD206802F038FC2068816950
:1044D00041F0080181612068816921F00401816156
:1044E000206881692A69114311E0206802F056FCB6
:1044F0002068816941F4006181612068816921F44B
:1045000080618161206881692A6941EA02218161B3
:10451000D2E7206802F078FC2068C16941F0080108
:10452000C1612068C16921F00401C1612068C169CD
:104530002A69114311E0206802F09AFC2068C169E1
:1045400041F40061C1612068C16921F48061C161E9
:104550002068C1692A6941EA0221C161ACE710B54E
:10456000040003D094F83D0010B107E0012010BD15
:10457000002084F83C00204600F01EF8022084F859
:104580003D00211D206802F051FB012084F8460007
:1045900084F83E0084F83F0084F8400084F841002D
:1045A00084F8420084F8430084F8440084F845000D
:1045B00084F83D00002010BD7047704710B50446D8
:1045C000022249B104290ED0082913D094F84100E1
:1045D000012816D0012010BD94F83E000128F9D121
:1045E00084F83E200FE094F83F000128F2D184F8CF
:1045F0003F2008E094F840000128EBD184F84020E7
:1046000001E084F841200122206802F077FB16497E
:104610002068164A884201D0904203D1436C43F48B
:10462000004343642068884213D0B0F1804F10D01B
:104630000F4988420DD00F4988420AD00E4988425E
:1046400007D0904205D00D49884202D00C498842DB
:1046500004D1816801F00701062903D0016841F007
:1046600001010160002010BD000001400004014074
:104670000004004000080040000C004000400140E1
:104680000018004010B5044600680749884201D16F
:10469000FEF72CFC05492068884203D1BDE8104094
:1046A00002F04EB910BD00000010004000040040B0
:1046B0007047704710B504460068406994F841108F
:1046C000C0F3C010212911D180B12068143050E806
:1046D000001F21F0800140E80012002AF5D1A06BF4
:1046E00008B1FEF7EFF8204602F0D8FC20684069D8
:1046F00094F84210C0F38010222911D180B12068B3
:10470000143050E8001F21F0400140E80012002A58
:10471000F5D1E06B08B1FEF7D5F8204602F097FC22
:10472000002010BD70470000F8B501680446086815
:10473000CA684B6910F00F0F4FF0000559D003F015
:10474000010602F49077374365D0C10705D0D10543
:1047500003D5616C41F001016164410705D5D907BA
:1047600003D0616C41F002016164810705D5D9076E
:1047700003D0616C41F004016164010707D502F0C8
:104780002001314303D0616C41F008016164616C28
:1047900000293AD0800604D5900602D5204602F0C2
:1047A0008BFC20684069616CC0F38010090700D45D
:1047B00060B3204602F04BFC20684069400621D5DA
:1047C0002068143050E8001F21F0400140E800123A
:1047D000002AF5D1E06BA8B172490165E06BFEF7E4
:1047E000BAF8002811D0E06B016D01B0BDE8F040CF
:1047F000084783060FD593060DD52046BDE8F8403F
:1048000002F05ABC2046FFF78DFFF8BD2046FFF7A7
:1048100089FF6564F8BD266B2023012E7ED1C60674
:104820007CD5D6067AD508684868009048694FF06C
:10483000020640064DD5E26B106840684FF4807761
:104840000004000C3AD0A18D814237D9E085D069AF
:10485000B8422DD020680C3050E8001F21F4807140
:1048600040E80012002AF5D12068143050E8001FFB
:1048700021F0010140E80012002AF5D1206814302F
:1048800050E8001F21F0400140E80012002AF5D155
:1048900084F84230256320680C3050E8001F21F076
:1048A000100140E80012002AF5D1E06BFEF70AF88B
:1048B0006663A08DE18D401A81B206E0A18D814230
:1048C000A8D1D069B842A5D166632046FFF7F1FEB2
:1048D000F8BDA08DE18D401A81B2E08D0028F7D09F
:1048E0000029F5D020680C3050E8002F22F4907297
:1048F00040E80027002FF5D12068143050E8002F41
:1049000022F0010240E80027002FF5D184F8423060
:10491000256320680C3050E8002F00E006E022F00C
:10492000100240E80023002BF3D1CDE705062BD57C
:10493000150629D594F841002128C9D1A068B0F501
:10494000805F01D12069B0B1206A411C21622168D9
:1049500000784860E08C401E0004000CE084B7D171
:104960002068C16821F08001C1602068C16841F001
:104970004001C160F8BD206A0088C0F308004860AB
:10498000206A801C2062E5E74006F3D55006F1D589
:10499000CA68204622F04002CA6084F8413000F024
:1049A00093F9F8BD076F000870B5040004D094F8BF
:1049B0004100002510B106E0012070BD84F8405090
:1049C000204600F023F8242084F841002068C168C4
:1049D00021F40051C160204602F0D0FB206801693B
:1049E00021F4904101612068416921F02A0141616F
:1049F0002068C16841F40051C1606564202084F8DA
:104A0000410084F842006563002070BD2DE9F04F3D
:104A100087B0044614216846FBF729FEDFF89CC1E5
:104A200002212668664803220723DFF898810025C3
:104A30008F064FF4807B4FF0400A4FF48069664543
:104A400060D15F4E1436D6F800C04CF0100CC6F89A
:104A500000C0366806F010060596066846F00106A6
:104A60000660006800F00100059050028DE8230008
:104A700069464046CDE90323FEF730F9534E5248CC
:104A8000B8463060C6E90175C6E903597561C6E9E3
:104A9000065B35624F4630467562FEF73FF808B157
:104AA000FDF737FDE663B463484E4748603678301B
:104AB000C6E903577561B561F5613562756286E8CF
:104AC00001053046FEF72AF808B1FDF722FDA6637E
:104AD00000220A212520B463FEF7A0FA2520FEF764
:104AE0008FFA3A4890380068C16841F01001C160FF
:104AF00036496422F43901F1640000F06FF807B020
:104B0000BDE8F08FDFF8C8C06645F8D12C4E1036EE
:104B1000D6F800C04CF4003CC6F800C0366806F475
:104B200000360596066846F001060660006800F04B
:104B3000010005900C208DE8230069464046CDE930
:104B40000323FEF7CBF8214E2248C036B846C6E90B
:104B500003597561B561F5613562756286E80105D5
:104B60004F463046FDF7DAFF08B1FDF7D2FCA663E9
:104B7000B4631848184E18383060C6E90185C6E994
:104B800003577561C6E9065B356230467562FDF70D
:104B9000C5FF08B1FDF7BDFCE66300220B2126200E
:104BA000B463FEF73BFA2620FEF72AFA0748483896
:104BB0000068C16841F01001C160A0E70010014029
:104BC000303802400000024040640240580A002091
:104BD00000440040A0600240780B002090F8423072
:104BE000202B01D00220704721B11AB100230363AA
:104BF00002F04ABB0120704708B50021009100680F
:104C00000B49884212D10B48FFF754FD0A48694608
:104C1000006805F015FC0098002807D007494FF000
:104C200080500860BFF34F8FBFF36F8F08BD000047
:104C300000100140C80900200000002004ED00E041
:104C40007047000070B5044690F84100202801D05C
:104C5000022070BD01B3FAB12162A284E284002077
:104C60006064212384F84130A56B144BEB63A56B82
:104C7000134B2B64A56B134BEB64A36B1865206877
:104C80001346A56B021D2846FDF7B2FF30B1102078
:104C90006064202084F84100012070BD21686FF01D
:104CA000400008602068143050E8001F41F0800187
:104CB00040E80012002AF5D1002070BD0370000802
:104CC00045700008156F000808B5002100910068C4
:104CD0000D4B01210D4A984200D111700C4B9842A6
:104CE00010D151700B486946006805F0A9FB009887
:104CF000002807D008494FF080500860BFF34F8F5D
:104D0000BFF36F8F08BD0000004400403C0000204E
:104D1000001001400800002004ED00E07047FEE7AD
:104D200010B56420FDF79CFF80216B2000F070F827
:104D30003220FDF795FF01216B2000F069F80A2071
:104D4000FDF78EFF0021232000F062F800216A2089
:104D500000F05EF802211A2000F05AF810211B2002
:104D600000F056F810211C2000F052F802211D20FE
:104D700000F04EF80021192000F04AF801213820F7
:104D800000F046F81021372000F042F80021702092
:104D900000F03EF8752000F006F8122801D000203F
:104DA00010BD012010BD1CB540F080008DF8000042
:104DB000FF208DF80100022201A9684604F068FC7A
:104DC0009DF805001CBD0000F8B540F080000E4EB7
:104DD00014460D468DF80000002210213046FEF7E3
:104DE0007AF80A23012269460848FEF765FE0A237D
:104DF000224629460548FEF7B3FD01221021304620
:104E0000FEF769F8F8BD000000000240140500201C
:104E100008B500F07F008DF800008DF80110022128
:104E2000684604F00DFC08BD7FB5002415480094C9
:104E3000019402941249039401604FF48031C0E957
:104E400001140461047680F820400F49C0E90A1477
:104E50000125C561C46080F830404561FDF7B3FCB1
:104E600008B1FDF756FB0095CDE9015469460548A8
:104E7000FDF76AFB002801D0FDF74BFB7FBD00006A
:104E8000002001406C0400200100000F2D4808B5EF
:104E9000016841F480010160016801F48001009122
:104EA000016841F4001101600068002200F4001064
:104EB000009005210E20FEF7B1F80E20FEF7A0F8B5
:104EC000002205210F20FEF7A9F80F20FEF798F821
:104ED000002205211020FEF7A1F81020FEF790F81F
:104EE000002205211120FEF799F81120FEF788F81D
:104EF000002205213820FEF791F83820FEF780F8CF
:104F0000002205213A20FEF789F83A20FEF778F8CA
:104F1000002205213B20FEF781F83B20FEF770F8C8
:104F2000002205213C20FEF779F83C20FEF768F8C6
:104F3000002205214620FEF771F8BDE80840462012
:104F4000FEF75EB83038024010B58EB00322002163
:104F5000012005F053F92A4C032200212060012092
:104F600005F04CF9606003220021012005F046F9AC
:104F7000A06000220C21012005F040F920610022F0
:104F80000C21012005F03AF9E06000220C210120FB
:104F900005F034F9606100224C21012005F02EF962
:104FA000E06100225821012005F028F9A0610022CB
:104FB0003421012005F022F920620022082101207D
:104FC00005F01CF9012160620022084605F016F97F
:104FD000A0621C220B496846FBF717FB00216846BC
:104FE00003F096FB0749E0621C221C3107A8FBF77F
:104FF0000CFB002107A803F08BFB20630EB010BD53
:105000000000002024B100082DE9F04F87B01421E2
:105010006846FBF72CFB4F480024016841F08001F3
:105020000160016801F080010591016841F0010112
:105030000160016801F001010591016841F004017E
:105040000160016801F004010591016841F002016D
:1050500001600068DFF800A100F002000590012265
:105060004FF488715046FDF736FFDFF8F0B00022AC
:1050700010215846FDF72FFF4FF480590122494671
:105080003748FDF728FF002220213548FDF723FF90
:1050900010254FF011080095CDE90184694650466E
:1050A0000394FDF71BFE00950125CDE901546946E7
:1050B00058460394FDF712FE4FF4881602278DE838
:1050C000E00069462648FDF709FE0097CDE9016436
:1050D00069462348FDF702FE04208DE83100694649
:1050E0001F48FDF7FBFDCDF80090CDE9018469462E
:1050F0001B480394FDF7F2FD2802CDE90005CDE938
:10510000024769465046FDF7E9FDA802CDE90006D1
:10511000694602945846FDF7E1FD20200090CDE954
:10512000015469460E480394FDF7D8FD002207217B
:105130000620FDF773FF0620FDF762FF002206211F
:105140000720FDF76BFF0720FDF75AFF07B0BDE80A
:10515000F08F00003038024000000240000802409A
:1051600000040240104810B50E4901604FF48271EE
:10517000416000218160C1604FF400720161C0E9AB
:1051800005121822C0E90721416281620A21C16229
:10519000FEF7B8FA002803D0BDE81040FDF7B9B912
:1051A00010BD00000030014014050020104810B56B
:1051B0000E4901604FF48271416000218160C1603D
:1051C0004FF400720161C0E905121022C0E9072105
:1051D000416281620A21C162FEF794FA002803D07D
:1051E000BDE81040FDF795B910BD00000038004043
:1051F0006C05002010B586B0002418480094019476
:1052000002940394049414490594016042F2CF017E
:10521000C0E901140921C0E9031480218161FEF76E
:105220006BFF08B1FDF775F94FF4805000906946A7
:105230000A48FEF7FBFF08B1FDF76BF9049404A9D7
:1052400006480594FEF710FF08B1FDF762F9034820
:10525000FEF7ACFF06B010BD00040040440700207C
:1052600030B595B000240F941094119412941394B7
:105270001C2168461494FBF7FAF9202107A8FBF7D4
:10528000F6F9414D3F48286040F28F60C5E90104BE
:1052900040F2E730C5E903046C612846AC61FEF7D3
:1052A0002BFF08B1FDF735F94FF480500F900FA98F
:1052B0003548FEF7BBFF08B1FDF72BF93248FFF781
:1052C0004EF908B1FDF725F9139413A92E4814944B
:1052D000FEF7CAFE08B1FDF71CF9602000904FF4FC
:1052E000FA70CDE901040394049405940022694600
:1052F00025480694FFF7CDF808B1FDF70AF9042216
:1053000069462148FFF7C5F808B1FDF702F9082200
:1053100069461D48FFF7BDF808B1FDF7FAF80C2201
:10532000694619480194FFF7B4F808B1FDF7F1F8A0
:105330000794089409944FF400500A94CDE90B4067
:1053400007A911480E94FEF764FE08B1FDF7E1F8D5
:1053500000210D48FFF732F904210B48FFF72EF921
:1053600008210948FFF72AF90C210748FFF726F919
:105370002868416C41F4004141640348FFF75EF83E
:1053800015B030BD000401408C0700200C4810B55A
:105390000A4901604FF4E1314160002181600C2233
:1053A000C160C0E904128161C161FFF7FDFA002804
:1053B00003D0BDE81040FDF7ACB810BD00100140AF
:1053C000C80900200C4810B50A4901604FF4E131CA
:1053D0004160002181600C22C160C0E9041281613A
:1053E000C161FFF7E1FA002803D0BDE81040FDF7E6
:1053F00090B810BD00440040100A0020FEE7FEE710
:105400000120704778B10B4A002100BF52F83130BB
:1054100083420AD802EBC1039B68834205D902EBA1
:10542000C100007B70471F207047491CC9B2152975
:10543000ECD3FEE7ECB10008F0B50025DDE9066429
:10544000121D059F052901D0062902D10C2B00D27F
:105450000C2310B1012802D004E00B2901D00C2943
:1054600000D101250CB1102000E0002000EBC600A7
:105470004C4200EB84000FB1002400E014240444EB
:105480008800062902D9083405B10838002C00DA52
:1054900000240444641E94FBF0F00C3300FB023043
:1054A000062900D8801C012202EB8000891E88405A
:1054B000F0BD00000748C078042805D0052805D0B5
:1054C000072805D000207047022070470120704750
:1054D00003207047F00100200320704710B5104CE6
:1054E000206100F0BCFE0F4800F0A4FE002001F097
:1054F00085F9002001F0F1F80021084600F085FF51
:105500000421002001F0B6F900234FF6FF701A467F
:10551000014600F0C0FF01F011FA0020A07010BD9C
:10552000F0010020C1560008F8B5454CA0780028CD
:105530007ED00020A07000F0BEFD054600F09CFD6E
:10554000E80708D001F03CFA0120E070206910B1B2
:10555000006800B18047A80737D5680609D560788C
:1055600008B90120E070206978B3006968B380470A
:105570002BE000F03BFF607880B90120E070002153
:1055800040F6021001F091FA40F64416304600F061
:10559000F1FE40F00201304601F087FAFF22694631
:1055A000284800F0D7FD2748143800F095FD206901
:1055B00058B186684EB123489DF80010143890F910
:1055C0000D3090F90C201430B04728060AD5012080
:1055D000E070206930B1816921B1E84340F30020D7
:1055E000401C8847A80516D5E078042802D0052875
:1055F00008D010E001F0E4F90120E070206950B11A
:10560000406806E000F0F2FE0120E070206910B171
:10561000C06800B18047A80611D500F0E7FE6078A9
:1056200008B90120E0702069002808D0C06800E0B7
:1056300005E0002803D001B0BDE8F0400047F8BD08
:10564000F0010020784C00202DE9F0438046002432
:105650008BB01E4691460F460125204600F0DEF82D
:10566000404601F041F800200121CDE908010790F2
:10567000069002900390049005900320CDE90070FD
:1056800000234FF416723946184600F0FBF800204C
:1056900000F04AF8012000F00AFD09E000F0A0FD4A
:1056A000484501DD002505E0012000F000FD641CF7
:1056B000B442F3D300F086FA0BB02846BDE8F0837D
:1056C0000149012088707047F001002004480069FA
:1056D000002803D0C068002800D0004770470000B1
:1056E000F001002004480069002803D04068002829
:1056F00000D0004770470000F001002010B50120E5
:1057000000F08CF800231A461946184600F0C3FE34
:10571000BDE8104000F035BD80B200F02BBE80B275
:1057200000F030BE00F05CBD10B5044600234FF61B
:10573000FF701A46014600F0AEFE24B1204601F08B
:105740003BF800F047FE0648417811B16FF07F400A
:1057500001E0C0688001BDE8104000F0E8BF000033
:10576000F001002010B5044600234FF6FF701A46E2
:10577000014600F090FE24B1204601F01DF800F033
:1057800029FE0648417811B16FF07F4001E0C06802
:105790008001BDE8104000F0DDBF0000F0010020F6
:1057A00070B505460C46002340F201201A4601461A
:1057B00000F071FE00F0C8FC01460B48012910D032
:1057C0000472094800F014FF00222146284600F028
:1057D00013FE0648806801F08DF8BDE8704001F0C6
:1057E000E3B8C473EDE70000784D0020F00100201D
:1057F00000F07ABF074B084A012807D0D07901286A
:1058000007D119701172044800F0F2BE1970D173FB
:10581000F9E77047F0010020784D002010B50A4CE0
:10582000012805D0002000F045FF0020607010BD69
:10583000012000F03FFF617820788142F7D060704E
:10584000BDE8104000F002B8F401002070B5044635
:105850000B48047044700120FFF7E0FF4FF4E8604C
:10586000451C24B1342101F020F9442103E0142126
:1058700001F01BF924212846BDE8704001F015B95C
:10588000F40100202DE9FF4F83B01646DDE913A295
:10589000DDE911795FA3604D88461B681999019372
:1058A000697009B14FF000095FEA0A0101D02A705E
:1058B00001E0FF212970594C4FF0000B04F1280141
:1058C0000091C8B1012870D1002000F0A5FF01208F
:1058D000534B84F82800F1B284F8381013F80820EC
:1058E00084F83920069A84F83A20B8F1000F48D09D
:1058F000B8F1010F47D048E0002000F08DFF84F898
:1059000028B00B20E66284F834004046FFF77AFDA9
:1059100084F835004FF6FF7084F800B000EAC70045
:105920006080042020712020607184F806B08AF025
:105930000100E07128782072159808B1F22000E08B
:10594000012060720120A072002000F057FF94F83F
:10595000280000B10120FFF761FF009800F0E0FD92
:105960002E4800F045FE01A800F05DFF40F2FF1058
:1059700000F0C6FF4FF4FA5109FB01F0B0FBF6F05E
:105980003FE00B2E09D00C2E07D084F83BB02070DE
:10599000052905D0062903D008E084F83B00F6E786
:1059A0000C2F03D20C20A08101E02BE0A78184F80A
:1059B0000EA02878E0731598207418986074002061
:1059C00000F01CFF94F8280000B10120FFF726FF2B
:1059D000009800F0A5FD114800F00AFE09F0FF0054
:1059E00000F074FD607C40F23674012820460CD033
:1059F00000F0C0FC40F00401204601F056F84FF6DC
:105A0000FF70E86007B0BDE8F08F00F0B3FC20F055
:105A10000401F1E72D012D01F0010020784D002057
:105A2000E8B1000800F0AEBE2DE9FF4F83B010AC26
:105A30005FEA000C94E8830654A2554C1268019268
:105A4000DDF85C8004F128024FF0000640F6890B77
:105A50004FF00105009203D0BCF1010F7CD139E079
:105A600084F82860E0620B2084F834001846FFF7C1
:105A7000C9FC84F83500059820634FF6FF70267046
:105A800000EAC70060800420207120206071A671A8
:105A900089F00100E071BAF1000F02D0F2206072CB
:105AA00000E06572A572002000F0A8FE94F82800BE
:105AB00000B10120FFF7B2FE009800F031FD34483C
:105AC00000F096FD01A800F0AEFE40F2FF1000F0DD
:105AD00017FF41E0DFF8BCC084F82850C2B284F858
