:020000040800F2
:10000000E82D002021020008B7210008B31E0008D7
:10001000B5210008D90500080F38000800000000CD
:10002000000000000000000000000000890100083E
:100030001306000800000000CD0100086D3600081E
:100040003B0200083B0200083B0200083B0200089C
:100050003B0200083B0200083B0200083B0200088C
:100060003B0200083B0200083B020008DD050008D7
:100070003B0200083B0200083B0200083B0200086C
:100080003B0200083B0200083B0200083B0200085C
:100090003B0200083B0200083B020008150600086E
:1000A0003B0200083B0200083B0200083B0200083C
:1000B0003B02000815370008213700083B02000802
:1000C0003B0200083B0200083B0200083B0200081C
:1000D0003B0200083B0200083B0200083B0200080C
:1000E0003B0200083B0200083B02000800F002F857
:1000F00000F03AF80AA090E8000C82448344AAF188
:100100000107DA4501D100F02FF8AFF2090EBAE885
:100110000F0013F0010F18BFFB1A43F0010318473B
:1001200090530000B0530000103A24BF78C878C143
:10013000FAD8520724BF30C830C144BF04680C60ED
:10014000704700000023002400250026103A28BF35
:1001500078C1FBD8520728BF30C148BF0B60704739
:100160001FB51FBD10B510BD00F045F91146FFF7D2
:10017000F7FF03F0A3FB00F063F903B4FFF7F2FF0E
:1001800003BC00F06BF90000224B19680868B0E866
:10019000F00F80F30988BFF36F8F4FF0000080F3FA
:1001A00011884EF00D0E70470000000006480068F0
:1001B000006880F3088862B661B6BFF34F8FBFF363
:1001C0006F8F00DF00BF00BF08ED00E0EFF3098094
:1001D000BFF36F8F0F4B1A6820E9F00F106008B55E
:1001E0004FF0500080F31188BFF34F8FBFF36F8F34
:1001F00004F01CFB4FF0000080F31188BDE80840BC
:1002000019680868B0E8F00F80F30988BFF36F8FB2
:10021000704700BF24000020EFF305807047000006
:100220000948804709480047FEE7FEE7FEE7FEE78A
:10023000FEE7FEE7FEE7FEE7FEE7FEE704480549C6
:10024000054A064B7047000011370008ED00000812
:10025000E8270020E82D0020E8290020E8290020D8
:10026000032A40F2308010F0030C00F0158011F8E2
:10027000013BBCF1020F624498BF11F801CB00F8BA
:10028000013B38BF11F8013BA2F1040298BF00F80E
:1002900001CB38BF00F8013B11F0030300F02580CB
:1002A000083AC0F0088051F8043B083A51F804CBF2
:1002B000A0E80810F5E7121D5CBF51F8043B40F8B8
:1002C000043BAFF30080D20724BF11F8013B11F8C3
:1002D00001CB48BF11F8012B24BF00F8013B00F807
:1002E00001CB48BF00F8012B704710B5203AC0F091
:1002F0000B80B1E81850203AA0E81850B1E8185027
:10030000A0E81850BFF4F5AF5FEA027C24BFB1E863
:100310001850A0E8185044BF18C918C0BDE81040D4
:100320005FEA827C24BF51F8043B40F8043B08BFDD
:100330007047D20728BF31F8023B48BF11F8012BA4
:1003400028BF20F8023B48BF00F8012B704702F09D
:10035000FF0343EA032242EA024200F002B84FF0F0
:1003600000020429C0F0128010F0030C00F01B8082
:10037000CCF1040CBCF1020F18BF00F8012BA8BF90
:1003800020F8022BA1EB0C0100F00DB85FEAC17C54
:1003900024BF00F8012B00F8012B48BF00F8012B07
:1003A00070474FF0000200B5134694469646203938
:1003B00022BFA0E80C50A0E80C50B1F12001BFF41E
:1003C000F7AF090728BFA0E80C5048BF0CC05DF884
:1003D00004EB890028BF40F8042B08BF704748BFD2
:1003E00020F8022B11F0804F18BF00F8012B704746
:1003F000704770477047754600F02CF8AE46050010
:100400006946534620F00700854618B020B5FFF72F
:1004100015FFBDE820404FF000064FF000074FF0F9
:1004200000084FF0000B21F00701AC46ACE8C00912
:10043000ACE8C009ACE8C009ACE8C0098D4670471B
:1004400010B50446AFF300802046BDE81040FFF72A
:1004500094BE0000004870478827002001491820FA
:10046000ABBEFEE7260002007047000070B50446F0
:1004700000688168C943C90717D1816821F001016B
:10048000816000F0A5FD05460AE000BF00F0A0FD78
:10049000401B022804D920688068C043C00706D0EA
:1004A00020688068C043C007F0D0002070BDA06AFB
:1004B00040F01000A062E06A40F00100E06201201C
:1004C00070BD10B50146406A826A12F0500F05D027
:1004D000006A026BBDE8104008461047816A41F48B
:1004E0000071816201688968C1F3424107290CD11A
:1004F000017B51B9816A21F480718162816AC904EA
:1005000003D4816A41F00101816200F0E5F910BD78
:1005100010B5406A816A41F040018162C16A41F0D0
:100520000401C16200F0DAF910BD10B5406A00F0B4
:10053000D4F910BDF8B5002604460096006881681D
:10054000C943C9072DD0816841F001018160164877
:1005500016490068B0FBF1F000E0401E0090002852
:10056000FBD100F035FD054616E000BF00F030FD80
:10057000401B022810D920688068C043C0070BD0F8
:10058000A06A40F01000A062E06A40F00100E06262
:1005900084F824600120F8BD20688068C043C0074B
:1005A000E4D10020F8BD00002000002040420F00F0
:1005B00010B5084A002100BF30F8114032F8113060
:1005C000E41A03EB241322F81130491C0429F3DB4D
:1005D00010BD0000E4000020FEE70000014800F02C
:1005E000DBBA00007803002030B590F840500124B9
:1005F000AC40C56B6C60046863604368102B036893
:1006000003D099600068C26030BD9A600068C16024
:1006100030BD70474FF4007000F0D4BB72B6FEE7F7
:100620001149CA68D207FCD10A6942F002020A6184
:100630004861086940F040000861C868C007FCD103
:10064000C868800609D5C86840F02000C8600869FD
:1006500020F00200086100207047086920F00200C5
:100660000861012070470000002002400248016933
:1006700041F08001016170470020024003480249B7
:1006800041600349416070472301674500200240F3
:10069000AB89EFCD0F4AD368DB07FCD1136943F078
:1006A000010313610180D068C007FCD1D0688006C7
:1006B00009D5D06840F02000D060106920F001001A
:1006C000106100207047106920F0010010610120C6
:1006D000704700000020024001B582B000208DF874
:1006E00004000A200090012301AA02A9044801F095
:1006F00025F908B1FF200EBD9DF804000EBD0000D5
:10070000BC030020F8B500250446009590F82400AD
:1007100001280BD0012084F824002046FFF7A6FE14
:100720002046FFF707FF060002D050E00220F8BD88
:10073000A06A20F4885040F00200A062022000F07D
:1007400017FD25490968B1FBF0F0400000E0401EAC
:1007500000900028FBD12068816841F00801816089
:1007600000F036FC074608E000F032FCC01B0A2807
:1007700003D920688068000715D4206880680007C6
:10078000F2D42068816841F00401816000F020FC0F
:10079000074612E000F01CFCC01B0A280DD9206897
:1007A0008068400709D5A06A20F0020040F01000E0
:1007B000A06284F824500120F8BD206880684007BA
:1007C000E8D4A06A20F0020040F00100A06284F8A2
:1007D00024503046F8BD000020000020F8B5002469
:1007E000009490F824202546012A12D0012280F896
:1007F00024204A681F23072A0DD20668776B521EF1
:1008000002EB820293409F430B6893401F43776340
:1008100019E00220F8BD06680D2A0AD2376BD21FF4
:1008200002EB820293409F430B6893401F43376360
:1008300009E0F76A0D3A02EB820293409F430B688E
:1008400093401F43F7620A68072306680A2A0AD3FF
:10085000F7680A3A02EB420293409F438B68934049
:100860001F43F76008E0376902EB420293409F4361
:100870008B6893401F4337610A68102A01D0112A00
:1008800020D1124B02689A4217D193681B0219D4E7
:10089000936843F4000393600968102912D10C494E
:1008A0000C4A0968B1FBF2F101EB8101490000E05B
:1008B000491E00910029FBD104E0816A41F020012A
:1008C0008162012480F824502046F8BD00240140B4
:1008D0002000002040420F00704770477047000022
:1008E0002DE9F0414FF0000704003D467ED0A06A9C
:1008F000002628B9E66284F82460204600F07EF8DD
:100900002046FFF7B3FDA16AC90600D420B1A06A52
:1009100040F01000A06269E0A16A21F4885141F022
:100920000201A1626268E169237B0A4347EA43014D
:100930000A43A1684FF48077B94209D0012907D052
:100940005FF0000194F814C0BCF1010F02D00AE07E
:100950003946F7E7F3B1A36A43F02003A362E36AE1
:1009600043F00103E3622368D3F804C02CF4694C1C
:100970004CEA010CC3F804C021688B68DFF870C032
:1009800003EA0C0313438B60A168B9420BD0012921
:1009900009D00CE0DFF85CC0A3690CEB43330B43D8
:1009A00043F40061DFE7218A0D05A5F58015216874
:1009B000CB6A23F470032B43CB62216889680E4B0A
:1009C0001940914208D1E662A16A21F0020141F08A
:1009D0000101A162BDE8F081A06A20F0020040F0B0
:1009E0001000A062E06A40F00100E0620120F1E73F
:1009F000FDF7E1FF00E0FFFFFE0E1FFF70B586B0C0
:100A000000250646009501950295039500681A4950
:100A100088422ED11949886940F40070886188693C
:100A200000F400700490886940F0040088618869CF
:100A3000694600F0040004900F200090032001900C
:100A40000F4800F0CBF9104C0E48C4E90005802097
:100A5000C4E9025040002061800060612020C4E9A8
:100A60000605204600F042F908B1FFF7D7FD3462D1
:100A7000666206B070BD0000002401400010024014
:100A80000008014008000240780300202DE9F047EB
:100A9000894604463B4900683B4F0E1D90468842FC
:100AA00001D0B84207D1306810F4702F03D001256F
:100AB0002846BDE8F08794F8240001280CD00120D6
:100AC00084F824002046FFF735FD05004FF00000B4
:100AD00004D084F82400EBE70220EAE7A16A40F69C
:100AE0000162914341F48071A1622168B94218D139
:100AF000326812F4702F14D0A16A41F48011A162FF
:100B00003168490505D5A16A21F4005141F48051AD
:100B1000A162A16AC9040AD5E16A21F00601E16275
:100B200006E0A26A22F48012A2624968E9E7E06264
:100B300084F82400216A15488862216A1448C86232
:100B4000216A1448086321686FF002000860206879
:100B5000816841F480718160216843464A464C3186
:100B6000206A00F0F1F820688168C1F3424107294A
:100B7000816803D041F48011816099E741F4A001BC
:100B8000FAE700000024014000280140C3040008E7
:100B90002B050008110500082DE9F05FC16B0C68FA
:100BA00001680B68D0F840C0042202FA0CF2494DEB
:100BB000DFF824A1494E4A4FDFF828B1DFF828E1D9
:100BC00022422CD05A072AD50A68920603D40A6812
:100BD00022F004020A600168A94201D1042219E04E
:100BE000514501D1402215E0B14202D14FF480625B
:100BF00010E0B94202D14FF480420BE0594502D1D6
:100C00004FF4802206E0714502D14FF4800201E0EA
:100C10004FF080622F4908394A60C16A3BE04FF0CB
:100C2000020808FA0CF818EA040F4FF000094FF018
:100C3000010235D05FEA837832D50B689B0605D474
:100C40000B6823F00A030B6080F821200168A94299
:100C500001D1022219E0514501D1202215E0B14213
:100C600002D14FF4007210E0B94202D14FF40052A9
:100C70000BE0594502D14FF4003206E0714502D134
:100C80004FF4001201E04FF00072124908394A6037
:100C900080F82090816A00291AD0BDE8F05F0847EB
:100CA000082505FA0CF5254212D01B0710D50B6854
:100CB00023F00E030B6090F84010C36B02FA01F1B1
:100CC0005960826380F8212080F82090016BE2E770
:100CD000BDE8F09F080002401C00024030000240C6
:100CE00044000240580002406C00024030B528B376
:100CF00008C8134914221944B1FBF2F18900C163F9
:100D000010498163022141771A6843F6F0718A43E2
:100D1000D0E900142143D0E902452C432143046962
:100D2000214344692143846921431143196000210F
:100D30004163012242770177084630BD012030BD72
:100D4000F8FFFDBF0000024070B5044690F8200097
:100D5000002501280CD0012084F8200094F821609F
:100D60000020012E06D084F820000225284670BD00
:100D7000022070BD022684F82160A0632068066806
:100D800026F0010606602046FFF72EFCE06A0028E8
:100D90002068016802D041F00E0106E021F0040154
:100DA00001602068016841F00A0101602068016863
:100DB00041F001010160D9E7B0F5007F01D102F0F7
:100DC00037BD7047044910B50A68024202D0086076
:100DD000FFF7F2FF10BD0000140401402DE9F84FA9
:100DE000DFF8B8910024A9F1040B23460F2709F17D
:100DF000040AABF1040EC9E00125A5402A40AA422D
:100E00007DD1674ED1F804C0ACEB0608B44532D0B2
:100E100014DCBCF1030F3AD009DCBCF1000F2AD07E
:100E2000BCF1010F1CD0BCF1020F31D11DE0BCF1AF
:100E3000110F17D0BCF1120F2AD119E0B8F5881F95
:100E400019D006DCB8F5803F15D0B8F5801F1FD14A
:100E500011E0B8F5001F0ED0B8F5041F18D10AE054
:100E6000CB6815E0CB681B1D12E0CB6808330FE0A0
:100E7000CB680C330CE08B682BB1012B4FF00803CF
:100E800003D0456104E0042302E0056100E0002393
:100E9000FF2A01D8064601E000F104064FEA840566
:100EA00001D9A5F12005D6F8008007FA05FC28EA4B
:100EB0000C0803FA05F548EA0508C6F800804D68F5
:100EC000ED0062D5374DAE6946F00106AE61AD6901
:100ED00024F0030605F001050095334D06EB050CE3
:100EE000DCF80850A607360F07FA06F825EA0805C9
:100EF000DFF8B880404503D14FF0000817E044E028
:100F0000DFF8AC80404502D14FF001080FE0DFF878
:100F1000A480404502D14FF0020808E0DFF8988035
:100F2000404502D14FF0030801E04FF0040808FAF1
:100F300006F848EA0508CCF808804D68D9F8006042
:100F4000ED024D4601D5164300E096432E604D68F4
:100F5000DAF80060AD02554601D5164300E096432D
:100F60002E604D68DBF80060AD035D4601D5164389
:100F700000E096432E604D68DEF80060ED03754694
:100F800001D5164300E096432E60641C0D682A4686
:100F9000E5407FF431AFBDE8F88F00000804014060
:100FA0000000111000100240000001400008014044
:100FB000000C01400010014000140140806808400E
:100FC00000D0012070470AB1016170470904FBE7B6
:100FD00001488068704700001400002002488168C2
:100FE000027811448160704714000020074810B552
:100FF000016841F010010160032000F0A7F80F2004
:1010000000F006F800F050F8002010BD002002406B
:1010100030B505461F4887B0C16941F00201C16182
:10102000C06906A900F00200009001A800F0FEF9D6
:101030000498B0B100F01AFA40001749174AB0FB03
:10104000F1F11748491E0260416040F2E732002189
:10105000C0E903218160816100F09EFD040003D09E
:1010600015E000F003FAE8E70D4800F0E1FD0400A8
:101070000DD11D2000F03CF8102D07D2002229468A
:101080001D2000F043F80748056000E0012407B088
:10109000204630BD0010024040420F0000040040D6
:1010A0005C040020180000200F4808B5816941F059
:1010B00001018161816901F001010091C16941F083
:1010C0008051C161C069002200F0805000900F2162
:1010D000901E00F01BF80548416821F0E06141F0E6
:1010E0000071416008BD0000001002400000014096
:1010F000002809DB00F01F02012191404009800017
:1011000000F1E020C0F8001170470000F0B40E4B71
:101110001B680C46C3F30223C3F10705042D00D955
:101120000425191D072901D2002300E0DB1E01263A
:1011300006FA05F1491E214099409E40761E164050
:101140003143F0BC02F064BB0CED00E0064900F056
:10115000070208684FF6FF03184040EA0220034ADE
:1011600010430860704700000CED00E00000FA0535
:1011700010B501460020234C012922D0022939D084
:1011800010291DD161682268D20119D51E48C1F30A
:101190008342C903805C0AD561681B4AC1F34041A0
:1011A000921E515C194AB2FBF1F1484301E0184923
:1011B00048436168490203D440000321B0FBF1F0C9
:1011C00010BD226AC2F30121012903D1920701D582
:1011D000C80310BD022905D1626A920702D549F6FB
:1011E000404010BD0329FCD121688903F9D54FF295
:1011F000244010BD00F04AF96168C1F38131491CF7
:101200004900DBE7001002405053000800127A004A
:1012100000093D002DE9F84305460078354CC0072C
:1012200054D0E0690026C00008D4E06940F0805046
:10123000E061E069012600F0805000902E480168CE
:10124000C90512D40168804641F480710160FFF73E
:10125000BFFE074605E000BFFFF7BAFEC01B6428CB
:1012600023D8D8F80000C005F6D5206A10F44070E5
:1012700021D0A98801F4407181421CD0206A1F4905
:10128000012220F440700A6000220A602062C00738
:1012900011D0FFF79DFE074641F2883808E000BFF5
:1012A000FFF796FEC11B414502D90320BDE8F88334
:1012B000206A8007F4D5206A696820F440700843EA
:1012C00020621EB1E06920F08050E061287880073C
:1012D00005D56068A96820F440400843606028781C
:1012E000C00605D56068E96820F4800008436060A6
:1012F0000020DBE700100240007000404004424242
:101300002DE9F0470F46050061D0434E306800F0EC
:101310000700B84209D2306820F007003843306037
:10132000306800F00700B84251D128683B4C810773
:1013300012D5400703D5606840F4E060606028780B
:10134000000703D5606840F4605060606068A96879
:1013500020F0F000084360602878C00728D0686853
:10136000012810D02168022810D0890700292EDA20
:10137000616821F0030101436160FFF729FE8046A7
:1013800041F288390DE021688903EFE78901EDE733
:10139000FFF71EFEA0EB0801494502D90320BDE876
:1013A000F0876068696800F00C00B0EB810FEFD146
:1013B000306800F00700B8420BD9306820F0070011
:1013C00038433060306800F00700B84201D0012097
:1013D000E5E72878400705D56068E96820F4E06013
:1013E000084360602878000706D56068296920F402
:1013F000605040EAC100606000F058F86168084A37
:10140000C1F30311515CC8400649086006480068F2
:10141000FFF7FEFD0020C2E700200240001002405E
:101420006053000820000020180000200F220260F6
:101430000C4A536803F003034360536803F0F0035E
:101440008360536803F4E063C36052684FF4E06361
:1014500003EAD20202610448006800F00700086055
:101460007047000000100240002002400448054977
:1014700000684968044AC1F30221515CC8407047C2
:101480002000002000100240705300080448054965
:1014900000684968044AC1F3C221515CC8407047E2
:1014A0002000002000100240705300080E4A5168CE
:1014B0000E4801F00C03042B11D0082B0FD10C485F
:1014C000C1F38343C903C05C0AD55168084AC1F31C
:1014D0004041921E515C054A5043B0FBF1F0704709
:1014E00004494843704700000010024000127A008F
:1014F0003E53000800093D002DE9F84F040070D06C
:101500002078C04DC00749D06868C0F38100012829
:1015100007D06868C0F38100022809D16868C00359
:1015200006D52868800339D560680028E7D035E003
:101530006068B0F5803F0BD010B1B0F5A02F11D08E
:10154000286820F480302860286820F4802002E099
:10155000286840F480302860606890B1FFF738FD5B
:1015600006460AE0286840F480202860F0E700BFC3
:10157000FFF72EFD801B642873D828688003F7D5F9
:101580000CE0FFF725FD064605E000BFFFF720FD54
:10159000801B6428F0D828688003F7D420789A4EFE
:1015A00080074FF001094FF0000839D5686810F046
:1015B0000C0F07D06868C0F38100022809D1686861
:1015C000C00306D42868800714D52069012808D1F3
:1015D00010E02069B0B1C6F80090FFF7F9FC0746AB
:1015E00005E00AE1FFF7F4FCC01B0228C4D8286814
:1015F0008007F7D52868616920F0F80040EAC1004B
:1016000028600DE0C6F80080FFF7E2FC074604E022
:10161000FFF7DEFCC01B022823D828688007F7D418
:10162000207800072CD57948A169D9B1C0F800907D
:10163000FFF7CEFC074604E0FFF7CAFCC01B0228F8
:101640000FD8686A8007F7D571484FF4FA510068DF
:10165000B0FBF1F0009000BF0098411E0091FAD25B
:101660000EE080E0C0F80080FFF7B2FC074604E01F
:10167000FFF7AEFCC01B022875D8686A8007F7D454
:101680002078400760D5E8690027C00008D4E869E1
:1016900040F08050E861E869012700F08050009038
:1016A0005C480168C90513D40168834641F4807120
:1016B0000160FFF78DFC824606E000BFFFF788FC63
:1016C000A0EB0A0064284ED8DBF80000C005F5D571
:1016D000E06801280AD008B1052813D0286A20F054
:1016E00001002862286A20F0040002E0286A40F025
:1016F00001002862E06841F2883B98B1FFF768FC7E
:1017000082460BE0286A40F004002862EEE700BF42
:10171000FFF75EFCA0EB0A0159455AD8286A8007FA
:10172000F6D50CE0FFF754FC824605E0FFF750FCCD
:10173000A0EB0A0159454CD8286A8007F6D41FB19E
:10174000E86920F08050E861E06988B36968C1F316
:101750008101022944D00228C6F8608004D0FFF736
:1017600037FC044638E034E0FFF732FC074604E07B
:10177000FFF72EFCC01B02282BD828688001F7D465
:10178000206AB0F5803F05D16868A16820F4003078
:1017900008436860D4E908010843696821F47411BA
:1017A00008436860C6F86090FFF712FC044606E044
:1017B00025E000BFFFF70CFC001B022809D82868B1
:1017C0008001F7D51BE000BFFFF702FC001B0228D9
:1017D00002D90320BDE8F88F28688001F4D40EE018
:1017E0000128F7D06868226A00F48031914204D160
:1017F000616A00F47010884201D00120EAE70020FD
:10180000E8E700000010024000004242800442422B
:10181000200000200070004070B5040009D0606A0C
:10182000002540B125616561A56294F8510040B181
:101830000CE0012070BD6068B0F5827FF4D0E561F6
:10184000F2E784F85050204600F040F8022084F877
:1018500051002068016821F040010160A0882189C1
:1018600000F4827001F404410843A18901F400618D
:101870000843217C01F002010843217D01F00101B0
:101880000843218B01F400710843217F01F03801E6
:10189000084394F8201001F080010843218D01F4E1
:1018A0000051084321680860A069042101EA104042
:1018B000216848602068C16921F40061C1616565E3
:1018C000012084F85100002070BD000030B585B0C3
:1018D00000240094019402940394006814498842FF
:1018E00023D11448816941F480518161816901F4F7
:1018F00080510491816941F00401816180690E4D3C
:1019000000F004000490A020009002200190032029
:10191000039069462846FFF761FA4020CDE90004AC
:10192000694628460294FFF759FA05B030BD000019
:101930000030014000100240000801402DE9FF4F37
:1019400081B01D46934604464FF001090E9EFFF7F5
:101950003FFB074694F851006168012806D0B1F5B5
:10196000827F3CD1A168C9BB042838D102980028E5
:1019700071D0BBF1000FFBD0002DF9D094F85000CE
:1019800001282CD04FF0010A84F850A094F851009F
:10199000042802D0052084F851004FF00008C4F854
:1019A0005480C4F838B0E587A58702992163E5869D
:1019B000A586C4F84080C4F84480206801684906C0
:1019C00003D4016841F040010160E068B0F5006FA8
:1019D000606808D0F0B3012D49D081E0FFE7022014
:1019E00005B0BDE8F08F08B1012D39D1206B216819
:1019F0000088C860206B801C2063E08E401EE0865B
:101A00002EE02068816889070FD5E18E69B1B9F1B0
:101A1000010F0AD1216B0988C160206B801C2063F3
:101A2000E08E401EE0864FF0000920688168C907FB
:101A30000CD0E18F51B1C068A16B0880A06B801CF5
:101A4000A063E08F401EE0874FF00109FFF7C0FA66
:101A5000C01B01E00BE067E0B04201D3701C50D125
:101A6000E08E0028CDD1E08F0028CAD13EE0206B67
:101A7000216800780873206B401C2063E08E401EB4
:101A8000E0862DE02068816889070FD5E18E69B175
:101A9000B9F1010F0AD1216B09780173206B401C49
:101AA0002063E08E401EE0864FF0000920688168C8
:101AB000C9070CD0E18F51B1C068A16B0870A06B51
:101AC000401CA063E08F401EE0874FF00109FFF744
:101AD0007FFAC01BB04202D3701C01D011E086B166
:101AE000E08E0028CED1E08F0028CBD13A46314697
:101AF000204600F0EBFF50B12020606584F8508054
:101B000012E084F851A084F85080032068E7A068B0
:101B100018B92068C1688068009084F851A084F8E2
:101B20005080606D0028F1D0012059E77047704760
:101B300070B590F83C20012A26D0012480F83C4062
:101B4000022280F83D2003685A689D6822F07006E2
:101B50000A6832435A600D4B02689A4208D0B2F1CB
:101B6000804F05D00A4B9A4202D00A4B9A4204D1C8
:101B7000496825F080031943916080F83D400021B9
:101B800080F83C10084670BD022070BD002C01405A
:101B9000000400400008004010B5040003D094F891
:101BA0003D0010B107E0012010BD002084F83C008A
:101BB000204600F01FF8022084F83D00211D206817
:101BC00001F0B4FD012084F8460084F83E0084F85A
:101BD0003F0084F8400084F8410084F8420084F813
:101BE000430084F8440084F8450084F83D00002058
:101BF00010BD000008B500680B49884212D10B489F
:101C0000C16941F00401C161C069002200F0040013
:101C1000009005211E20FFF779FABDE808401E203C
:101C2000FFF766BA08BD000000080040001002403F
:101C300090F83D10012901D001207047022180F861
:101C40003D100168CA6842F00102CA6000680B4991
:101C5000884208D0B0F1804F05D00949884202D0AF
:101C60000849884204D1816801F00701062903D0A0
:101C7000016841F00101016000207047002C014023
:101C8000000400400008004070B5044690F83C0095
:101C90000025012817D0012684F83C60022084F832
:101CA0003D002068826822F0770222F47F42826041
:101CB0000868502838D00DDC20284FD005DC90B3C0
:101CC000102811D14AE0022070BD302846D04028AB
:101CD0000AD13BE060282FD070280DD0B0F5805F8E
:101CE00003D0B0F5005F12D0012584F83D600020DC
:101CF00084F83C00284670BDCB68D1E901212068FA
:101D000001F050FD2068816841F0770109E0CB685F
:101D1000D1E90121206801F045FD2068816841F486
:101D200080418160E1E719E0CA684968206801F0F4
:101D30004BFD5021206806E0CA684968206801F020
:101D400054FD6021206801F037FDCEE7CA6849687C
:101D5000206801F039FD40212068F4E7226801463F
:101D60001046F0E770472DE9F04104460068C66868
:101D700005694FF00007A90713D5B10711D5F91E62
:101D8000016101202077206880698007204602D009
:101D9000FFF7E8FF04E000F07EF8204600F07CF852
:101DA0002777680716D5700714D521686FF00400EF
:101DB0000861022020772068806910F4407F204667
:101DC00002D0FFF7CFFF04E000F065F8204600F0F6
:101DD00063F82777280715D5300713D521686FF0EA
:101DE00008000861042020772068C0698007204629
:101DF00002D0FFF7B7FF04E000F04DF8204600F0F6
:101E00004BF82777E80616D5F00614D521686FF051
:101E100010000861082020772068C06910F4407F16
:101E2000204602D0FFF79EFF04E000F034F8204681
:101E300000F032F82777E80708D0F00706D02168CD
:101E40006FF001000861204600F028F8280608D548
:101E5000300606D521686FF0800008612046FFF744
:101E600065FE680608D5700606D521686FF040004B
:101E70000861204600F01CF8A8060AD5B00608D56F
:101E800021686FF0200008612046BDE8F041FFF7AF
:101E90004EBEBDE8F08170477047000000680349FE
:101EA000884201D1FFF79AB8704700000004004053
:101EB0007047FEE7FEB500252048009501951E49B4
:101EC000029501608915816001240473057504265B
:101ED00006614FF460214560C161FEF701FD08B164
:101EE000FEF79CFB022707200094CDE901706946AC
:101EF0001248FEF773FC08B1FEF790FB009703272A
:101F000069460E480197FEF769FC08B1FEF786FBAB
:101F1000CDE9007669460948FEF760FC08B1FEF796
:101F20007DFBCDE9005469460448FEF757FC0028C4
:101F300001D0FEF773FBFEBD0024014048030020E2
:101F4000094808B5416941F0010141614069002239
:101F500000F00100009005210B20FFF7D7F8BDE845
:101F600008400B20FFF7C4B80010024010B58EB037
:101F700000220821012002F01FFE124C0121002244
:101F80002060084602F018FE606000220421012053
:101F900002F012FEA0601C220B496846FEF7A5F96C
:101FA0000021684601F0B6FC0749E0601C221C31A4
:101FB00007A8FEF79AF9002107A801F0ABFC206101
:101FC0000EB010BD00000020045300082DE9F047BA
:101FD00086B00024454800940194029403948169DA
:101FE00041F010018161816901F010010491816962
:101FF00041F020018161816901F020010491816932
:1020000041F004018161816901F004010491816959
:1020100041F0080181618069DFF8D49000F0080088
:1020200040F20D360490002231464846FEF7CBFFC1
:1020300040F20247012239464846FEF7C4FFDFF866
:10204000B4A04FF40048002241465046FEF7BBFFC3
:102050004FF4804002258DE8310069462648FEF79E
:10206000BDFE00960126694648460196CDE9024527
:10207000FEF7B4FE0320CDE90240CDE900766946C3
:102080004846FEF7ABFE4FF6F0008DE8310069469A
:102090004846FEF7A3FE4FF4C8508DE8310069466C
:1020A0005046FEF79BFE280200901448CDE901053A
:1020B00069465046FEF792FE68028DE85100694677
:1020C0005046FEF78BFECDE9008669465046CDE9C5
:1020D0000245FEF783FE002205211720FFF716F8C0
:1020E0001720FFF705F806B0BDE8F08700100240A2
:1020F000000C0140000801400010014000001110D8
:10210000104810B50E4901604FF482714160002102
:102110008160C1604FF400720161C0E905120822BC
:10212000C0E90721416281620A21C162FFF774FBA5
:10213000002803D0BDE81040FEF770BA10BD0000C3
:1021400000300140BC03002010B586B000241848C0
:10215000009401940294039404941449059401603A
:1021600042F2CF01C0E901140921C0E90314802122
:102170008161FFF711FD08B1FEF750FA4FF480506E
:10218000009069460A48FFF77FFD08B1FEF746FA5E
:10219000049404A906480594FFF7CAFC08B1FEF7A9
:1021A0003DFA0348FFF744FD06B010BD00080040AB
:1021B00014040020FEE7FEE7F0B50F4D06460827A1
:1021C000FEF75CFA2846FEF72BFA38B95FF00004F8
:1021D000284636F81410FEF75DFA18B1FEF746FAF5
:1021E0000120F0BD641CA4B2AD1CBC42F0D3FEF7CC
:1021F0003DFA0020F0BD000000FC000810B5B1F968
:102200000030B1F90220834201DD184602E082422B
:1022100000DA1046B1F90640B1F90410C01A641A88
:102220004443D01A94FBF0F0084400B210BD0120E2
:102230007047000078B10B4A002100BF52F83130DE
:1022400083420AD802EBC1039B68834205D902EBA3
:10225000C100007B70471F207047491CC9B2152977
:10226000ECD3FEE7E8530008F0B50025DDE906648D
:10227000121D059F052901D0062902D10C2B00D281
:102280000C2310B1012802D004E00B2901D00C2945
:1022900000D101250CB1102000E0002000EBC600A9
:1022A0004C4200EB84000FB1002400E014240444ED
:1022B0008800062902D9083405B10838002C00DA54
:1022C00000240444641E94FBF0F00C3300FB023045
:1022D000062900D8801C012202EB8000891E88405C
:1022E000F0BD00000748C078042805D0052805D0B7
:1022F000072805D000207047022070470120704752
:10230000032070478C0000200320704710B5104C4C
:10231000206100F090FD0F4800F078FD002001F0F2
:1023200051F8002000F0BDFF0021084600F051FEEA
:102330000421002001F082F800234FF6FF701A46B6
:10234000014600F08CFE01F0DDF80020A07010BD09
:102350008C000020F1240008F8B5454CA078002836
:102360007ED00020A07000F092FC054600F070FCCA
:10237000E80708D001F0D4F80120E070206910B11E
:10238000006800B18047A80737D5680609D560788E
:1023900008B90120E070206978B3006968B380470C
:1023A0002BE000F007FE607880B90120E07000218A
:1023B00040F6021001F02DF940F64416304600F0C8
:1023C000BDFD40F00201304601F023F9FF226946CD
:1023D000284800F0ABFC2748143800F069FC20695D
:1023E00058B186684EB123489DF80010143890F912
:1023F0000D3090F90C201430B04728060AD5012082
:10240000E070206930B1816921B1E84340F30020D8
:10241000401C8847A80516D5E078042802D0052876
:1024200008D010E001F07CF80120E070206950B184
:10243000406806E000F0BEFD0120E070206910B1A8
:10244000C06800B18047A80611D500F0B3FD6078E0
:1024500008B90120E0702069002808D0C06800E0B9
:1024600005E0002803D001B0BDE8F0400047F8BD0A
:102470008C000020A82500202DE9F0438046002490
:102480008BB01E4691460F460125204600F0C6F847
:10249000404600F00DFF00200121CDE90801079022
:1024A000069002900390049005900320CDE90070FF
:1024B00000234FF416723946184600F0E3F8002066
:1024C00000F032F8012000F0DEFB09E000F074FCBF
:1024D000484501DD002505E0012000F0D4FB641C27
:1024E000B442F3D300F06EFA0BB02846BDE8F08397
:1024F00001490120887070478C00002010B5012030
:1025000000F08CF800231A461946184600F0A7FD83
:10251000BDE8104000F021BC80B200F00FBD80B2D9
:1025200000F014BD00F048BC10B5044600234FF67F
:10253000FF701A46014600F092FD24B1204600F0DB
:102540001FFF00F02BFD0648417811B16FF07F406E
:1025500001E0C0688001BDE8104000F0CCBE000082
:102560008C00002010B5044600234FF6FF701A4679
:10257000014600F074FD24B1204600F001FF00F098
:102580000DFD0648417811B16FF07F4001E0C06851
:102590008001BDE8104000F0C1BE00008C000020AA
:1025A00070B505460C46002340F201201A4601464C
:1025B00000F055FD00F0B4FB01460B48012910D096
:1025C0000472094800F0F8FD00222146284600F078
:1025D000F7FC0648806800F071FFBDE8704000F02D
:1025E00093BFC473EDE70000A82600208C000020F4
:1025F00000F05EBE074B084A012807D0D0790128B9
:1026000007D119701172044800F0D6BD1970D1734A
:10261000F9E770478C000020A826002010B50A4C6E
:10262000012805D0002000F029FE0020607010BDB8
:10263000012000F023FE617820788142F7D060709D
:10264000BDE8104000F002B89000002070B50446CC
:102650000B48047044700120FFF7E0FF4FF4E8607E
:10266000451C24B1342100F0D4FF442103E014219F
:1026700000F0CFFF24212846BDE8704000F0C9BF1C
:10268000900000202DE9FF4F83B01646DDE913A22C
:10269000DDE911795FA3604D88461B6819990193A4
:1026A000697009B14FF000095FEA0A0101D02A7090
:1026B00001E0FF212970594C4FF0000B04F1280173
:1026C0000091C8B1012870D1002000F089FE0120DE
:1026D000534B84F82800F1B284F8381013F808201E
:1026E00084F83920069A84F83A20B8F1000F48D0CF
:1026F000B8F1010F47D048E0002000F071FE84F8E7
:1027000028B00B20E66284F834004046FFF792FDC3
:1027100084F835004FF6FF7084F800B000EAC70077
:102720006080042020712020607184F806B08AF057
:102730000100E07128782072159808B1F22000E0BD
:10274000012060720120A072002000F03BFE94F88E
:10275000280000B10120FFF761FF009800F0C4FCE1
:102760002E4800F029FD01A800F041FE40F2FF10C4
:1027700000F0AAFE4FF4FA5109FB01F0B0FBF6F0AD
:102780003FE00B2E09D00C2E07D084F83BB0207010
:10279000052905D0062903D008E084F83B00F6E7B8
:1027A0000C2F03D20C20A08101E02BE0A78184F83C
:1027B0000EA02878E0731598207418986074002093
:1027C00000F000FE94F8280000B10120FFF726FF7A
:1027D000009800F089FC114800F0EEFC09F0FF00C1
:1027E00000F058FC607C40F23674012820460CD082
:1027F00000F0A4FB40F00401204600F00AFF4FF671
:10280000FF70E86007B0BDE8F08F00F097FB20F0A4
:102810000401F1E72D012D018C000020A8260020E5
:10282000E453000800F092BD2DE9FF4F83B010ACD7
:102830005FEA000C94E8830654A2554C126801929A
:10284000DDF85C8004F128024FF0000640F6890BA9
:102850004FF00105009203D0BCF1010F7CD139E0AB
:1028600084F82860E0620B2084F834001846FFF7F3
:10287000E1FC84F83500059820634FF6FF70267060
:1028800000EAC70060800420207120206071A671DA
:1028900089F00100E071BAF1000F02D0F2206072FD
:1028A00000E06572A572002000F08CFD94F828000D
:1028B00000B10120FFF7B2FE009800F015FC34488B
:1028C00000F07AFC01A800F092FD40F2FF1000F049
:1028D000FBFD41E0DFF8BCC084F82850C2B284F8A8
:1028E00038201CF803C084F839C084F83A1013B1BA
:1028F000012B02D003E00B2809D00C2807D084F864
:102900003B602570052A05D0062A03D007E084F82D
:102910003B50F6E70C2F02D20C20A08100E0A781EB
:102920001D4884F80E900078E07384F810A084F8B5
:102930001180002000F046FD94F8280000B101202D
:10294000FFF76CFE009800F0CFFB114800F034FC5C
:1029500094F83900062811D05C46584600F0EEFA8B
:1029600040F00401204600F054FE049800F0C0FC42
:1029700009491898886007B0BDE8F08F5C46584652
:1029800000F0DCFA20F00401ECE700002D012D013D
:10299000A8260020E45300088C00002070B50D46E6
:1029A0004FF47A7102FB01F400F082FC284600F03B
:1029B0009FFC00F038FD204600F080FDBDE870402F
:1029C00000F0A2BD10B5042000F0E0FCBDE810400E
:1029D000022000F058B9002000F0F4BC10B500232C
:1029E0004FF4C0701A46014600F039FBBDE81040B4
:1029F00000F0FABAFEB51F4615460E46DDE90A217B
:102A0000DDE908C35FEA000E4FF000004FF001045B
:102A100003D0BEF1010F45D111E073B15FF00000AA
:102A200000EBCC0001B10221114400EBC1004FF4D6
:102A30007A71203048432C4634E00820F0E7CDE995
:102A40000032029163463A4629463046FFF70CFCB5
:102A50004FF47A71484316490024895D0B2921D22D
:102A6000DFE801F0060C12181B1D1F20090F1500CE
:102A700041F6846416E042F6B10413E043F60954CB
:102A800010E045F261140DE047F612240AE04AF224
:102A9000C32407E04FF2244404E0064C02E0064C55
:102AA00000E0064C2044401EB0FBF4F0FEBD0000E8
:102AB000E453000848E8010090D0030020A107007B
:102AC00080B200F0A6BD80B200F0A9BDF8B51546F1
:102AD0000E460B46009204460122022100F010F837
:102AE00040B93346002280212046009500F008F8C6
:102AF000002804D0606D40F0200060650320F8BD20
:102B00002DE9F8431E46914688460446089DFEF787
:102B10005FFA401B351AFEF75BFA07462548006846
:102B2000C0F3CB30684338E0701C37D0FEF750FA62
:102B3000C01BA84203D215B1009860B32CE02068F6
:102B4000416821F0E00141606068B0F5827F0BD1FF
:102B5000A068B0F5004F02D0B0F5806F04D12068B6
:102B6000016821F040010160A06AB0F5005F09D161
:102B70002068016821F4005101602068016841F477
:102B800000510160012084F85100002084F85000B9
:102B90000320BDE8F8830025401E0090206881686E
:102BA00038EA010004D000214945BDD10020F0E7FA
:102BB0000121F9E72000002070477047174908B548
:102BC000884204D9E1208DF80000E9201EE0144974
:102BD000884204D9D7208DF80000DB2016E0114987
:102BE000884204D9C1208DF80000C5200EE00E49AE
:102BF000884204D975208DF80000812006E00B4939
:102C0000884205D96B208DF800006F208DF80100F7
:102C100002226946982000F0DBFC08BD00E9A435DB
:102C200080F8A9328044E52D000B6B1B40FC541941
:102C300010B500F037F818B100F034F8062803D1C9
:102C400000F090FCFFF7B9FFBDE8104000F06EBC4B
:102C500008B5010A8DF800108DF8010002226946BE
:102C6000104600F0B5FC08BD43F60952B0FBF2F186
:102C7000534201FB0300531003EB8030B0FBF2F032
:102C800000EB8130704701F0ABBC0220704708B503
:102C900002226946122000F02EF9BDF8000040BA69
:102CA00008BD00000148C078704700008C0000207B
:102CB00038B5044603226946142000F01CF9174871
:102CC0004178217041B1012916D014212046FDF729
:102CD00068FB0F20207038BD9DF8000020719DF822
:102CE000010040424010A0719DF802004042401097
:102CF00060710020A06038BD9DF800104942491065
:102D000021739DF90110891C891061739DF80210CF
:102D100049424910A1734068206138BDA0000020DD
:102D20000148407870470000A0000020F8B5064632
:102D30000C4600208DF8000015466946204600F03C
:102D400047F82278AA4201D90120F8BD31469DF802
:102D5000000000F0ACF80020F8BDF8B5002040F607
:102D6000E2060090304600F0E9F8054620F0010147
:102D7000304600F04EFCF71C384600F0DFF8044601
:102D800020F08001384600F044FC6FF07F4000F0F6
:102D9000B2FA0422694640F6190000F0D7F8012083
:102DA00000F010FB2946304600F033FC214638463F
:102DB00000F02FFC0098F8BD08B5012269461520E7
:102DC00000F099F89DF80000404240F3470008BD2C
:102DD00038B50D46044602226946132000F08BF8F0
:102DE00009484178012902D18078012806D09DF850
:102DF000000020709DF80100287038BD40F202707C
:102E000000F09CF8F5E70000A000002010B5044693
:102E100000F0C3F8204600F00FF800F0A3FB0120FB
:102E200000F0D0FA00F011F800F00CF8BDE8104006
:102E3000012000F0ABB970470149086070470000FD
:102E4000AC000020012000F003B9704710B5044C1D
:102E5000206B8047616BBDE8104044F62060084756
:102E60007853000810B5044C206B8047616BBDE8B7
:102E7000104044F6206008477853000810B5044C11
:102E8000206B8047616BBDE8104044F62060084726
:102E90007853000810B5044C206B8047616BBDE887
:102EA000104044F6206008477853000870472DE929
:102EB000F04115460E4607460024FFF7B9FE0020F4
:102EC00000F058F91E2000F01BFB384600F018FBFC
:102ED000002000F015FB05E0002000F011FB30554C
:102EE000641CA4B2AC42F7D3012000F043F9BDE862
:102EF000F04100F01BBB2DE9F04115460F46064698
:102F00000024FFF795FE002000F034F9304600F071
:102F1000F7FA002000F0F4FA064605E0002000F081
:102F2000EFFA3855641CA4B2AC42F7D3012000F08C
:102F300021F900F0FBFA3046BDE8F08108B5012226
:102F4000694600F003F89DF8000008BD2DE9F04146
:102F500016460F4605460024FFF76AFE002000F0E3
:102F600009F91D2000F0CCFA280A00F0C9FAE8B2ED
:102F700000F0C6FA002000F0C3FA05E0002000F0DF
:102F8000BFFA3855641CA4B2B442F7D3012000F054
:102F9000F1F8BDE8F04100F0C9BA70470348416854
:102FA000034881600121017070470000AC000020DF
:102FB0003427002001490020087070473427002082
:102FC00010B5144600F068F92046BDE8104000F046
:102FD00017BA08B502228DF800008DF80110694675
:102FE0008F2000F0F5FA08BD10B500221146C5206B
:102FF00000F0EEFABDE81040072000F0C7B800006E
:1030000008B5010A8DF800108DF8010005484078D8
:10301000002805D10222694640F2BE6000F0FFFAA6
:1030200008BD0000A000002008B5010A8DF80010BE
:103030008DF8010005484078002805D10222694634
:1030400040F2BC6000F0EBFA08BD0000A0000020D8
:1030500001B5012269469D2000F0BAFA08BD1CB5F1
:10306000040A8DF800408DF80100080A8DF802006E
:10307000100A8DF804008DF80520180A8DF8060056
:103080008DF8031008228DF807306946104600F0CD
:103090009FFA1CBDF8B50646F82800D9F820401C58
:1030A000440800258DF8005003E0E41CA4086D1CC2
:1030B000EDB21F2CF9D8012000EB450104FA01F014
:1030C0008DF8000001226946A02000F081FA002E50
:1030D00008D005EBC400C1B28DF8001040F20670B4
:1030E00000F097FAF8BD00007CB5044600201F49A7
:1030F0000090019020784978884201D000F0BEF815
:10310000207898B1012810D1207C8DF80000607CD7
:103110008DF80100A07C8DF80200E07C04228DF87F
:10312000030069468B2000F053FA7CBD10496068AB
:103130000825B1FBF0F0010C8DF80010010A8DF8A4
:1031400001108DF80200207B8DF80300607B8DF864
:103150000400A068FFF788FD010C8DF80510010A36
:103160008DF806108DF807002A46DAE7A000002047
:103170000000093D044B4FF4806108B1012200E0DA
:1031800000221846FDF71FBF000C01400149C8701E
:10319000704700008C00002008B58DF800008DF805
:1031A00001108DF802208DF8033004226946952025
:1031B00000F00EFA08BD00003EB5044600202E4D7A
:1031C00000900190029020786978884201D000F048
:1031D00055F82078D0B1012817D1A0890622010A1C
:1031E0008DF800108DF80100A07BA8708DF802000A
:1031F000E07B8DF80300207C8DF80400607C8DF866
:10320000050069468C2000F0E3F93EBD607AF128A4
:1032100002D0F2280AD012E04FF6FF70FFF704FF49
:1032200048F20500FFF7ECFE022008E041F60F50DF
:10323000FFF7FAFE41F22100FFF7E2FE0620618867
:103240000922090A8DF80010A1788DF80110217962
:103250008DF8021061798DF80310A1798DF80410B2
:10326000E1798DF80510217A8DF806108DF80700A8
:10327000A07A8DF80800C4E7A000002001B5054938
:103280009DF800000122487069468A2000F0A0F9EC
:1032900008BD0000A00000200A460146002000F002
:1032A00077B901B501226946962000F091F908BD71
:1032B00038B50E4C0546207820B92846FFF77EFC2D
:1032C000012020702846FFF7CFFC010E8DF800107A
:1032D000010C8DF80110010A8DF802108DF8030021
:1032E00004226946862000F073F938BDA000002052
:1032F000022100F0A3B838B504460520FFF746FFC9
:10330000200C8DF80000200A8DF801008DF8024095
:1033100003226946822000F05BF938BD38B50446C7
:103320000520FFF733FF962140F6AC0000F071F95D
:10333000200C8DF80000200A8DF801008DF8024065
:1033400003226946822000F043F938BD1CB5020C07
:103350008DF80020020A8DF801208DF80200080C7B
:103360008DF80300080A8DF804008DF80510062278
:103370006946942000F02CF90620FFF707FF1CBDDA
:1033800001494860704700003427002038B50446E2
:1033900000208DF80000FFF70FFCC4F380008000D0
:1033A000C4F3400140EA410004F0010108438DF8F4
:1033B000000001226946842000F00AF90020FFF78E
:1033C000E5FE38BD01B501226946802000F000F914
:1033D0009DF80000012800D00220FFF7D7FE08BDAD
:1033E00001B5012269469F2000F0F2F808BD10B532
:1033F000014608224FF4D86000F011F9002010BDFA
:1034000038B504460420FFF7C1FE200C8DF80000FB
:10341000200A8DF801008DF80240032269468320BE
:1034200000F0D6F838BD10B500221146D12000F0CA
:10343000CFF8BDE810400420FFF7A8BEF8B50D4650
:103440000446FFF722FC012813D040F6D806304688
:10345000FFF774FD40F01E01304600F0DAF801235A
:10346000002207210420FFF797FE162C16DD1624F4
:1034700019E04FF001030F2C1A464FF0000106D05F
:103480000420FFF789FE0E2C05DB0E240BE006203E
:10349000FFF782FEF9E76FF0100001E06FF008001F
:1034A000844200DA04468DF800408DF80150022273
:1034B00069468E2000F08CF8F8BD00000149486094
:1034C000704700002827002070B504460B4840785C
:1034D000002812D14FF4D7652846FFF72FFD00F0E2
:1034E000FE00C4F300210143284600F092F8E1B247
:1034F000681CBDE8704000F08CB870BDA0000020D2
:10350000FDF7EAB87047000003484168034881604E
:103510000121017070470000AC0000202827002026
:103520000149002008707047282700202DE9F0414C
:1035300000244FF47A774FF48065094E07E0204667
:10354000641CB84200D90024012001F049F8294642
:103550003046FDF733FD0128F1D0BDE8F0810000D1
:103560000008014010B50020FFF704FEC020FFF75F
:10357000C7FF0020FFF7C4FF0120FFF7FBFDFFF7A7
:10358000D5FF02490120C87010BD00008C0000204A
:103590002DE9F04115460E4607460024FFF748FB8B
:1035A0000020FFF7E7FD0E20FFF7AAFF3846FFF7E0
:1035B000A7FF04E0305DFFF7A3FF641CA4B2AC4298
:1035C000F8D30120FFF7D6FDBDE8F041FFF7AEBF0D
:1035D0002DE9F04115460E4607460024FFF728FB6B
:1035E0000020FFF7C7FD3846FFF78AFF04E0305D93
:1035F000FFF786FF641CA4B2AC42F8D30120FFF7AA
:10360000B9FD842F03D0BDE8F041FFF78FBFBDE8BF
:10361000F08113B5012201A900F001F81CBD2DE9CC
:10362000F04116460F4605460024FFF701FB002037
:10363000FFF7A0FD0D20FFF763FF280AFFF760FFEB
:10364000E8B2FFF75DFF04E0385DFFF759FF641C47
:10365000A4B2B442F8D30120FFF78CFDBDE8F041DD
:10366000FFF764BF012000F049F9FBE710B55020D7
:1036700080F31188BFF34F8FBFF36F8F01F0F4FC1D
:1036800018B104494FF080500860002080F3118881
:1036900010BD000004ED00E030B593B0282168466D
:1036A000FCF77FFE14210AA8FCF77BFE0025012011
:1036B0000F9510951195010412958DE82300049043
:1036C0004FF4E010CDE90810022407946846FDF796
:1036D00013FF08B172B6FEE70AA90F2081E8310096
:1036E0004FF48060CDE90D0502210AA8FDF708FE20
:1036F00008B172B6FEE74FF4004011900F940FA886
:10370000FDF788FD002801D072B6FEE713B030BD8A
:10371000704700000148FEF726BB00005C04002053
:103720000148FEF720BB000014040020F0B5026839
:10373000194B1A4C1A4D4FF08047984205D0B842A9
:1037400003D0A04201D0A84203D122F070064A68FB
:103750003243984205D0B84203D0A04201D0A842DB
:1037600003D122F44074CA6822434C6922F08002DB
:10377000224302608A68C2620A688262984201D16A
:1037800009690163012141610169C90703D0016928
:1037900021F001010161F0BD002C01400004004056
:1037A0000008004010B5846842EA032224F47F44F4
:1037B0000A432243826010BD826822F070020A43ED
:1037C00042F007018160704710B5036A046A24F073
:1037D00001040462846924F0F00444EA021423F032
:1037E0000A020A438461026210BD10B5036A046ACA
:1037F00024F010040462846923F0A00324F47044CC
:1038000044EA023243EA01118261016210BDFEE71F
:103810000907090E002804DB00F1E02080F80014FD
:10382000704700F00F0000F1E02080F8141D704791
:1038300003480168002901D00020084770470000B4
:10384000AC00002010B528210A48FCF788FD094883
:1038500020212830FCF783FD074C0122510220462D
:10386000FDF7B1FB20460122BDE810401102FDF733
:10387000AABB000040270020000C0140082807D206
:1038800004490844017E19B10021017601207047E6
:103890000020704740270020082808D20649084425
:1038A000017E21B1027A0021012A017601D0002097
:1038B000704701207047000068270020FDF796FB45
:1038C000FFF7EAFEFEF782FBFEF73AFBFEF7F2FA9D
:1038D000FEF716FCFEF738FC012208210348FDF72D
:1038E00072FBFEF743FB00F010F8FEE7000C01400E
:1038F00001460020842900D0C81C704710B500B9CB
:10390000012000F06DFE002010BD10B500F050FF4A
:10391000002010BD7FB50D4604464169B0F908008E
:1039200081B1A16971B1FFF7E3FFD4E905128DE818
:103930000700D4E900102B46226901F056FB0390E2
:1039400004B070BDFFF7D4FF03A9CDE90001208AC0
:103950002B4682B2D4E9001001F01AFB012801D0F5
:103960000020EDE70398EBE72DE9F041184C0F46F6
:103970000546E6682068001D00F024FD38B920687F
:1039800090F82C1001208840216981432161681C36
:1039900007D137B12168BDE8F0410E48091D00F09C
:1039A00065BD20683544B5424560216805D2A06BED
:1039B000BDE8F041091D00F041BD606B091D00F03C
:1039C0003DFDA06A854200D2A562BDE8F0810000FD
:1039D00024000020800500202DE9F041054600F07C
:1039E00051FD2E4CA068401CA06020682C4F10B1E7
:1039F000606940B32DE02560A068012829D1002628
:103A000006EB860007EB800000F00AFD761C072E0F
:103A1000F6D323488C3000F003FD2148A03000F09D
:103A2000FFFC1F48B43000F0FBFC1D48C83000F01C
:103A3000F7FC1B48DC3000F0F3FC19488C30606365
:103A40001430A06305E02068E96AC06A884200D8A3
:103A50002560606A401C6062E96A01202269884032
:103A60001043206101EB810007EB8000291D00F06D
:103A7000FDFC00F027FD606900280CD02068E96A91
:103A8000C06A884207D207494FF080500860BFF3F0
:103A90004F8FBFF36F8FBDE8F0810000240000203E
:103AA000A404002004ED00E030B4026C0B46002AB0
:103AB0000BD0C1681144C1608468A14201D3016880
:103AC000C16030BC1846FCF7CBBB30BC70472DE959
:103AD000F041856B174604460026026C82B1C7B1DF
:103AE000E068FCF7BDFBE168206C091AE160226820
:103AF000914202D2A168081AE060022F16D017E0A6
:103B00002068A8B9A06801F015FB06460020A06057
:103B10000EE06068FCF7A4FB216C606808446060FC
:103B2000A168884204D32068606001E005B16D1E81
:103B30006D1CA5633046BDE8F08110B5044690F8D1
:103B4000510058B101280CD002280FD0502080F32A
:103B50001188BFF34F8FBFF36F8FFEE7206B00F02C
:103B6000C5FC2046BDE8104000F0C0BC10BD000000
:103B700010484FF40051420706D0C01D0D4920F0F7
:103B80000700411AC1F500510B4A00230144C2E964
:103B900000030839183A21F0070111604B600B60EF
:103BA0000B1AC0E9001393604FF00040536050615E
:103BB000704700009405002078000020144E154C3A
:103BC000A6F1C8074FF08058DFF84C9012E000BF14
:103BD00000F058FCF068C568281D00F0F3FBA068F1
:103BE000401EA0606068401E606000F06BFC2846CC
:103BF000FFF7A3FF60680028EAD138680128F9D9E7
:103C0000C9F80080BFF34F8FBFF36F8FF2E700005A
:103C10006C0500202400002004ED00E0034600981D
:103C200029B10260C0E90F31012100F0E7BF006057
:103C3000F8E700002DE9F05F8846DDE90B941546B2
:103C4000834691009A460A9EA522206BFCF77FFBD3
:103C50006FF00301206B01EB8501084420F007079A
:103C6000780707D0502080F31188BFF34F8FBFF340
:103C70006F8FFEE70025B8F1000F0FD05FF0000056
:103C8000221818F8001082F8341018F8001011B13A
:103C9000401C1028F4D384F8435001E084F83450D9
:103CA000072E00D30626E662C4E91165201D00F048
:103CB000C2FB04F1180000F0BEFB2461C6F107004E
:103CC0006462A061E56484F8505052465946384613
:103CD00000F004F92060B9F1000F01D0C9F80040EC
:103CE000BDE8F09F30B5114900E011460A688242F4
:103CF000FBD34B685C18844203D140681844486089
:103D0000084643681C18944209D1084C183C2468A2
:103D1000A24209D052681A4442600A6812680260DE
:103D2000814200D0086030BD0460F9E778000020CF
:103D300010B5044600F0A6FBA06B28B15FF00004AC
:103D400000F0C0FB204610BD0124F9E70648416B96
:103D5000096829B1416BC968C968496881627047BF
:103D60004FF0FF31FAE700002400002008484068C7
:103D7000401C4FF0500080F3118804D0BFF34F8FE8
:103D8000BFF36F8FFEE7BFF34F8FBFF36F8FFEE779
:103D9000800000202DE9F041044600F073FB94F907
:103DA000455004F1240609E0606A48B1304601F04C
:103DB0000DFA08B100F0DEFC6D1E6DB2002DF3DCD3
:103DC0004FF0FF3684F8456000F07CFB00F05AFBB2
:103DD00094F9445004F1100709E0206948B13846CD
:103DE00001F0F4F908B100F0C5FC6D1E6DB2002DB4
:103DF000F3DC84F84460BDE8F04100F063BB0000F0
:103E00002DE9F0410546002700F008FD324E3068EC
:103E100008B9FFF7ADFE706905424ED1C5B308354C
:103E200068070ED005F00700C0F1080005446807D8
:103E300007D0502080F31188BFF34F8FBFF36F8FEF
:103E4000FEE72DB37068854237D823481830014605
:103E50000C6801E020460C466168A94202D2216844
:103E60000029F7D131688C4227D0076821680160AA
:103E700060680837411B10290FD96019420708D024
:103E8000502080F31188BFF34F8FBFF36F8FFEE791
:103E900013E041606560FFF725FF61687068401AB4
:103EA0007060B268904200D2B06070690143002037
:103EB000C4E90001F068401CF06001F0C1F9780726
:103EC00007D0502080F31188BFF34F8FBFF36F8F5F
:103ED000FEE73846BDE8F0816000002010B5031F02
:103EE0004FF080741C601B1F21F001011960191F25
:103EF000024B0B60143940380A6010BD6D3D00085C
:103F00002DE9F8433F4C0227390220783E4E4FF40A
:103F10008078002500B3012829D0022834D16068B8
:103F2000002831D0401E60602ED110213746304627
:103F3000FDF744F8064620213846FDF73FF8804655
:103F400040213846FDF73AF8814680213846FDF792
:103F500035F8DEB101211AE000223046FDF733F8D2
:103F6000012241463046FDF72EF865700AE0012235
:103F70003046FDF728F8002241463046FDF723F889
:103F80000420607027706760BDE8F88300218DF819
:103F900000105FEA080100D001218DF801105FEAEE
:103FA000090100D001218DF8021000B101208DF827
:103FB0000300667815480022E8464FF00109B3185F
:103FC00018F80270C118C75491F808C067450ED0A0
:103FD0000F7C7F1CFFB20F74052F09D3C75C17B18C
:103FE00081F8189001E081F82090C35C0B720D7489
:103FF000521C042AE3DB0EB12570C5E784F800905B
:10400000C2E70000B4000020000C0140402700205F
:104010007CB5294E4FF400513046FCF7CFFF8DF8A8
:1040200000004FF480413046FCF7C8FF8DF80100D6
:10403000F41421463046FCF7C1FF8DF802006500FC
:1040400029463046FCF7BAFF8DF8030021013046BF
:10405000FCF7B4FF194E8DF80400E1103046FCF770
:10406000ADFF8DF8050021463046FCF7A7FF8DF81F
:10407000060029463046FCF7A1FF8DF80700002016
:104080000F4B6D460446295C99B1002219181A5449
:104090000E7AB24208D00E7C761CF6B20E74052E53
:1040A00003D301260E760A720C74401C0828EADB42
:1040B0007CBD0122EAE70000000C0140000801403D
:1040C000682700201CB500240420CDE90004234605
:1040D00064220EA1114800F05BFF0520CDE9000429
:1040E000002364220EA1124800F052FF0620CDE901
:1040F0000004002364220FA1124800F049FF0020B1
:1041000000F0DAFA0120FFF7F9FBFBE755504441D4
:10411000544553544154455441534B0049410008C0
:10412000574952454C45535354585441534B000042
:104130006D490008574952454C4553535441534B20
:10414000000000008948000892B000F087FF10903E
:104150009448FCF7D7FA042293499248FCF796FC5E
:10416000FFF770FB002528204FF06F098E4C039558
:1041700000900127CDE90109DFF830A2DFF8308295
:10418000383CDFF830B204F1300609A800F0E0F95D
:10419000FFF7B6FE4FF480418748FCF70FFF012878
:1041A00004D1C10301228548FCF70DFF0020FFF771
:1041B00065FB012823D00120FFF760FB012821D0F7
:1041C0000220FFF75BFB012820D00320FFF756FBFE
:1041D00001281ED00420FFF751FB01281DD0052027
:1041E000FFF74CFB01281BD00620FFF747FB0128F7
:1041F0001AD00720FFF742FB012818D01AE00298D6
:10420000401D01E00298401F029013E00398401EF9
:1042100001E00398401C03900CE00098143001E08A
:1042200000981438009005E00198143801E00198D6
:1042300014300190E068401CE060052802D3E5607E
:10424000FFF7E6FE9AF80A105046012902D1C17B19
:10425000012903D0C17A012903D008E08DF810703C
:1042600005E09AF80E00012801D18DF810509DF854
:104270001000A17888420AD0A0706846FDF79CFF24
:104280004F480223002204A9006800F0FBFC002034
:10429000FFF702FB012851D08DF81F500120FFF7D6
:1042A000FBFA01285DD08DF81E500420FFF7F4FAC8
:1042B000012862D08DF81C500520FFF7EDFA012887
:1042C00065D08DF81D503848FCF772F93649B6F9BB
:1042D00000002039FDF792FF0299081A3249ADF823
:1042E0001A00B6F902002839FDF788FF039908443F
:1042F0002D49ADF81800B6F904001839FDF77EFF16
:104300000099081A2849ADF81400B6F906001039CA
:10431000FDF774FF019902230844ADF8160000224E
:1043200005A9DBF8000000F0ADFC002000F05EF80D
:10433000A060052110A800F079F926E71A49B6F91E
:1043400000002039FDF75AFF02990223081A029053
:104350008DF81F70002207A9D8F8000000F092FC29
:104360009CE78DF81E70CDF808900223002207A963
:10437000D8F8000000F086FC97E78DF81C70022347
:10438000002207A9D8F8000000F07CFC94E78DF823
:104390001D700223002207A9D8F8000000F072FC6B
:1043A00091E7000048030020EC000020682700206F
:1043B000080000200000002000100140000801401B
:1043C00004000020D0E9013201699A60D0E901239C
:1043D0005A604A68824201D182684A6000220261C2
:1043E0000868401E086008687047000008B9064861
:1043F00000680021006B01E0401C491C0278A52ADE
:10440000FAD0C1F38F00704724000020034B0360F3
:1044100003F154000860802010607047F400002011
:1044200000F108014FF0FF32C0E90112C1600161E3
:1044300000210160704700210161704730B50B68B1
:104440005A1C02D000F1080202E0026904E0224690
:10445000546825689D42FAD953684B6099608A6018
:10446000516008610168491C016030BD42684A60C2
:1044700093688B6093685960916008610168491C7A
:1044800001607047502080F31188BFF34F8FBFF356
:104490006F8F0A494868401C486001280CD10848C1
:1044A000006810F0FF0F07D0502080F31188BFF391
:1044B0004F8FBFF36F8FFEE7704700008000002032
:1044C00004ED00E00849486828B1401E486001D169
:1044D00080F311887047502080F31188BFF34F8F0D
:1044E000BFF36F8FFEE700008000002070B500284A
:1044F0002AD0164DA0F1080460686969084207D106
:10450000502080F31188BFF34F8FBFF36F8FFEE70A
:1045100022683AB1502080F31188BFF34F8FBFF368
:104520006F8FFEE78843606000F078F96068696823
:10453000084468602046FFF7D5FB2869401C2861C5
:10454000BDE8704000F07CBE70BD0000600000203F
:104550002DE9F041002706463D467C1E00F05EF93D
:104560001548DFF854800068A8F1180860B1D8F841
:10457000002041687F1CA94200D90D46A14200D20B
:104580000C4600689042F4D100F05AFEF760C6E98C
:104590000154FFF777FFD8F804103160D8F80C10F9
:1045A0007161D8F81010B161D8F808003061BDE829
:1045B000F041FFF787BF0000780000204FF0E020B7
:1045C00000210161816105494FF47A720968B1FBEC
:1045D000F2F1491E4161072101617047200000206E
:1045E00010B5020014D00F48006B38B1502080F392
:1045F0001188BFF34F8FBFF36F8FFEE700F00EF906
:1046000000211046FFF7B0F900F01AFE002807D18C
:1046100005494FF080500860BFF34F8FBFF36F8F95
:1046200010BD00002400002004ED00E070B50D4630
:1046300004000BD095B11E4A106BB8B1502080F326
:104640001188BFF34F8FBFF36F8FFEE7502080F3C9
:104650001188BFF34F8FBFF36F8FFEE7502080F3B9
:104660001188BFF34F8FBFF36F8FFEE700F0D6F8CE
:10467000D26823685919934204D98B420AD99142CE
:1046800002D807E08B42FAD9881A21600021FFF78F
:104690006BF900E0216000F0D3FD002807D1054947
:1046A0004FF080500860BFF34F8FBFF36F8F70BD26
:1046B0002400002004ED00E070B50546FFF7E2FE9F
:1046C000254C05B92568281DFFF77CFE58B9E86A16
:1046D000224A00EB800152F8211021B901218140CA
:1046E000206988432061A86A18B105F11800FFF716
:1046F00069FE606A401C60622068854208D11748E4
:10470000291DC830FFF7B2FE6068401C606007E0FA
:10471000A068401EA0602846FFF70FFAFFF716FBBF
:10472000FFF7D0FE6069002814D02068854211D1BF
:10473000206B38B1502080F31188BFF34F8FBFF347
:104740006F8FFEE706494FF080500860BFF34F8F30
:10475000BFF36F8F70BD000024000020A404002070
:1047600004ED00E002490A6A0260C96841607047CE
:104770002400002001490120C86170472400002066
:1047800010B50C4650B1094909681831FFF756FEBB
:104790002046BDE810400121FFF7E6B8502080F325
:1047A0001188BFF34F8FBFF36F8FFEE72400002007
:1047B00010B586B00024039405AA04A903A80494A4
:1047C000FFF724FEDDE903010094CDE90110002389
:1047D0000EA11048059A00F008FC0F490028C86295
:1047E00011D0502080F31188BFF34F8FBFF36F8F2C
:1047F0004FF0FF30886201204861CC6006B0BDE810
:10480000104000F085B906B010BD000049444C4589
:1048100000000000BD3B0008240000200248016B9E
:10482000491C016370470000240000201448016BFC
:1048300011B10121C16170470021C1610169B1FA63
:1048400081F1C1F11F0101EB81020E4951F82230C3
:104850006BB101EB820101F108034A6852684A60BA
:104860009A4201D152684A60D16801607047502075
:1048700080F31188BFF34F8FBFF36F8FFEE7000007
:1048800024000020A40400208CB03220FFF7A8FEF2
:1048900000F0E4FB0A902C482A49304C01602B4977
:1048A00081602B4941602B49C1602B49016121681E
:1048B0008847E1682A48884700254FF47A700595B3
:1048C0000695CDE9075001264FF004084FF49649AC
:1048D000CDE90286CDE900950496224FD4F81CC09C
:1048E0003B464FF416520C212846E047A16C40F697
:1048F000E700884720200695079508950995CDE99A
:10490000036000970596CDE901850023A6694A4614
:1049100039461846B047616B44F620608847124E0E
:1049200001210AA8FFF782FE206E80473078012817
:10493000F6D1206B804704482021A26A2038904796
:104940003570EDE7952E0008042700204D2E000855
:10495000AD2E00087D2E0008652E00087853000853
:10496000A0420B1C78310100A800002092B000F09A
:1049700075FBDFF890A1AA2701264FF0FF094FF041
:10498000020B00256C461090322110A8FFF74EFE56
:1049900000220FA9DAF8000000F024FA012834D030
:1049A000594800220DA9006800F01CFA0128EBD13B
:1049B0008DF800708DF8019041208DF802000E20D6
:1049C0008DF80300BDF834008DF80400000A8DF85E
:1049D0000500BDF836008DF80600000A8DF80700C6
:1049E000BDF838008DF80800000A8DF80900BDF800
:1049F0003A008DF80A00000A8DF80B009DF83C1073
:104A00000C2001294CD0B9B350E08DF800708DF81E
:104A10000190E0208DF802000B208DF8030010209B
:104A20008DF804009DF83C1006208DF805500129F2
:104A300001D019B105E08DF8066001E08DF806B0EF
:104A400007202554401C2554401C2554401C255447
:104A5000401C2554401C2554401CC0B22554401C09
:104A6000C0B22554401C00F0FF0C00209DF803301C
:104A7000024601461B1D09E015E000BF14F8018045
:104A8000491C404480B2024492B2C9B28B42F5D86C
:104A900004F80C000CF1010C0CF0FF00225473E739
:104AA0008DF80C6001E08DF80C500D202554401C51
:104AB0002554401C2554401C2554401C2554401CA2
:104AC00000F0FF0C00209DF80330024601461B1D3C
:104AD00008E000BF14F80180491C404480B2024441
:104AE00092B2C9B28B42F5D804F80C000CF1010C5B
:104AF0000CF0FF00202122540448826A6846904747
:104B000042E7000004000020000000207853000865
:104B10001CB5264908780190FF20087008788DF8A8
:104B200000009DF800009DF8002000F0F000904289
:104B300007D0502080F31188BFF34F8FBFF36F8FE2
:104B4000FEE79DF800001A4C00F05000207007208E
:104B5000A06005E09DF8002052008DF80020401E66
:104B60009DF800201206F5D4A060032807D050203D
:104B700080F31188BFF34F8FBFF36F8FFEE74FF4C1
:104B80004070A060019808700A48016841F4700103
:104B90000160016841F070410160FFF70FFD0020E6
:104BA0006060FBF703FB00201CBD000000E400E098
:104BB0008000002020ED00E0F8B517460E46050005
:104BC00013D005FB06F04830FFF71AF904000AD0AD
:104BD000002084F8460004F148023B46314628464E
:104BE0000094FFF71BF82046F8BD502080F3118891
:104BF000BFF34F8FBFF36F8FFEE7000070B50D4618
:104C0000040025D0FFF73EFCD4E90F20216802FB09
:104C10000011A1600021A163216861600A46D4E906
:104C20000F01401E00FB0121E16021464FF0FF30E3
:104C300001F8440F487004F110008DB1FFF7F0FB4C
:104C400004F12400FFF7ECFBFFF73CFC012070BDF2
:104C5000502080F31188BFF34F8FBFF36F8FFEE7B3
:104C600021690029F0D000F0B1FA0028ECD0044905
:104C70004FF080500860BFF34F8FBFF36F8FE3E7B3
:104C800004ED00E02DE9FF4782B01D468A464FF053
:104C90000008040003D0BAF1000F08D011E0502042
:104CA00080F31188BFF34F8FBFF36F8FFEE7206C47
:104CB00038B1502080F31188BFF34F8FBFF36F8F4F
:104CC000FEE7022D0AD1E06B012807D0502080F3C7
:104CD0001188BFF34F8FBFF36F8FFEE700F0B0F97D
:104CE0003F4F4FF000094FF0805648B9049838B153
:104CF000502080F31188BFF34F8FBFF36F8FFEE713
:104D0000FFF7C0FBA06BE16B884207D3022D05D0F3
:104D10000498D0B1B8F1000F1AD01EE02A465146CF
:104D20002046FEF7D4FE616A19B104F1240000F0B8
:104D30004DFA20B13E60BFF34F8FBFF36F8FFFF787
:104D4000C1FB012006B0BDE8F087FFF7BBFB22E006
:104D50006846FFF707FD4FF00108FFF7B3FBFFF7C9
:104D60005DFDFFF78FFB94F94400401C01D184F8EE
:104D7000449094F94500401C01D184F84590FFF718
:104D8000A1FB04A9684600F0C9F830B12046FFF73E
:104D900001F800F055FA0020D4E7FFF773FBA06B91
:104DA000E16B884213D1FFF78DFB04F110000499E9
:104DB000FFF7E6FC2046FEF7EDFF00F041FA002881
:104DC0009ED13E60BFF34F8FBFF36F8F98E7FFF721
:104DD00079FB2046FEF7DEFF00F032FA90E7000094
:104DE00004ED00E02DE9F747002683B08A46040071
:104DF00003D0BAF1000F08D011E0502080F31188E1
:104E0000BFF34F8FBFF36F8FFEE7206C38B1502098
:104E100080F31188BFF34F8FBFF36F8FFEE700F071
:104E20000FF9DFF8F4804FF000094FF0805748B9D0
:104E3000059838B1502080F31188BFF34F8FBFF32E
:104E40006F8FFEE7FFF71EFBA56BC5B151462046ED
:104E5000FEF72AFE6D1EA563206950B104F1100013
:104E600000F0B4F928B1C8F80070BFF34F8FBFF35A
:104E70006F8FFFF727FB012006B0BDE8F08705988C
:104E800008B11EB106E0FFF71DFB27E06846FFF7FB
:104E900069FC0126FFF716FBFFF7C0FCFFF7F2FAEB
:104EA00094F94400401C01D184F8449094F94500E1
:104EB000401C01D184F84590FFF704FB05A9684622
:104EC00000F02CF8002820460AD0FEF763FF00F01F
:104ED000B7F92046FEF72CFF0028B3D00020CBE71F
:104EE000FEF726FF90B104F124000599FFF748FC76
:104EF0002046FEF74FFF00F0A3F90028A2D1C8F822
:104F00000070BFF34F8FBFF36F8F9BE72046FEF714
:104F100041FF00F095F995E704ED00E02DE9F0413F
:104F20000C46050011D0C4B1FFF7ACFA174BDA6894
:104F30006E682068911B471C17D02F681B6A9F4220
:104F400019D0964217D8012410E0502080F3118820
:104F5000BFF34F8FBFF36F8FFEE7502080F31188B0
:104F6000BFF34F8FBFF36F8FFEE70024FFF7AAFA5E
:104F70002046BDE8F081884205D9401A20602846C5
:104F8000FFF7F0FBF1E700202060DCE724000020C1
:104F90002DE9FF5F8346DDE90E87994616468A466E
:104FA0009000FEF72DFF05001CD05420FEF728FFCF
:104FB000040014D00020256384F85100CDE902409C
:104FC000CDE900874B46324651465846FEF732FE41
:104FD0002046FEF701FD012004B0BDE8F09F284601
:104FE000FFF784FA4FF0FF30F6E7F0B585B0DDE962
:104FF0000B640A9DA6B1DCB15427009726630226F4
:1050000084F85160002604AFCDE90246CDE900578F
:10501000FEF710FE2046FEF7DFFC049805B0F0BD59
:10502000502080F31188BFF34F8FBFF36F8FFEE7DF
:10503000502080F31188BFF34F8FBFF36F8FFEE7CF
:105040000548416919B1006B18B100207047012073
:105050007047022070470000240000200148C0680B
:1050600070470000240000202DE9F0412F4C00265D
:10507000206B28B1A069401CA0613046BDE8F081DA
:10508000E5686D1CE56013D1606B006838B1502095
:1050900080F31188BFF34F8FBFF36F8FFEE7606B14
:1050A000A16B6163A063206A401C2062FEF74EFE84
:1050B000A06ADFF87C80854209D3606B0068A0B1EC
:1050C000606BC068C7687868854211D2A0622068AA
:1050D000C06A00EB800158F82100012800D90126A0
:1050E000E0690028C9D00126C7E74FF0FF30EDE79F
:1050F000381DFFF767F9B86A18B107F11800FFF714
:1051000061F9F96A0120226988401043206101EBAE
:10511000810108EB8100391DFFF7A8F9F86A2168C1
:10512000C96A8842C9D30126C7E7000024000020CD
:10513000A404002070B504004FF0000140D0214DC0
:105140002868844207D0502080F31188BFF34F8F26
:10515000BFF36F8FFEE7A06C38B1401EA064636C94
:10516000E26A9A422CD040B12AE0502080F31188A4
:10517000BFF34F8FBFF36F8FFEE7201DFFF722F9BC
:10518000114A012150B9E06A00EB800352F8233044
:1051900023B92B6901FA00F083432B61606CE06254
:1051A000C0F10700A061E06A2B69814019432961C1
:1051B00000EB800002EB8000211DFFF757F9012171
:1051C000084670BD24000020A40400202DE9F04111
:1051D000C068C468ACB104F118000746FFF7F2F8E4
:1051E000154D286B0126A0B139461448FFF73EF94A
:1051F000E06A2968C96A88421CD90120EE61BDE8CD
:10520000F081502080F31188BFF34F8FBFF36F8F71
:10521000FEE7201DFFF7D6F8E16A2A6906FA01F0D9
:105220001043286101EB81000449B43901EB80008F
:10523000211DDBE70020E2E72400002058050020C4
:105240002DE9F0472C4D00242746286B38B1FFF795
:1052500019F9286B401E2863286B40B146E05020A6
:1052600080F31188BFF34F8FBFF36F8FFEE7A968FC
:10527000224E0120D1B3A6F1B40980463068E8B1CE
:10528000F068C46804F11800FFF79CF8201DFFF7D0
:1052900099F8E06A2A6908FA00F11143296100EBE4
:1052A000800109EB8100211DFFF7E0F8E06A296821
:1052B000C96A8842E2D3C5F81C80DFE70CB1FEF76B
:1052C00045FDAC6944B14646FFF7CEFE00B1EE6144
:1052D000641EF9D10020A861E86938B108490127A6
:1052E00038070860BFF34F8FBFF36F8FFFF7EAF8FF
:1052F0003846BDE8F0870000240000205805002053
:1053000004ED00E0A4540008653600080000000029
:10531000000000008000000000000000000000000D
:1053200098540008C5400008FDFF00000000000080
:1053300080000000000000000000000001020203E5
:105340000405060708090A0B0C0D0E0F10100102C8
:1053500002030405060708090A0B0C0D0E0F1010B6
:105360000000000000000000010203040607080915
:1053700000000000010203040D230008E5220008DC
:105380001D260008F125000879240008FD240008E6
:1053900085260008292800082F220008F529000882
:1053A000A1250008C5290008D729000829250008DB
:1053B000DD2900089D29000825250008C12A0008CC
:1053C00019250008C72A00081F250008F525000830
:1053D0004D26000809230008592300086525000808
:1053E0002528000804050600C01200001F00000068
:1053F000A816000017000000841C00000F00000029
:10540000E42500001E000000B42D0000160000007E
:10541000083900000E0000002C4C00001D000000A8
:10542000685B000015000000747200000D000000B1
:10543000589800001C00000034B700001400000061
:10544000E8E400000C000000783101001B000000BF
:10545000686E01001300000034CA01000B00000058
:10546000286202001A00000040DB02001200000067
:105470003C9303000A000000C0C2040019000000B1
:1054800060B305001100000038200700090000008B
:1054900020A107000000000053544152545F5441C2
:1054A000534B000064656661756C745461736B00E6
:1054B000D054000800000020F4000000280100087B
:1054C000C4550008F4000020F42C0000440100083A
:1054D00000000000000000000000000000000000CC
:1054E00000000000010000001000000000000000AB
:1054F00000127A0000000000000000000000000020
:10550000000000000000000000000000000000009B
:10551000000000000000000000000000000000008B
:10552000000000000000000000000000000000007B
:10553000000000000000000000000000000000006B
:10554000000000000000000000000000000000005B
:1055500000000000AAAAAAAA00000000FF000000A4
:10556000000000000000000000000000000000003B
:10557000000000000000000000000000000000002B
:10558000000000000000000000000000000000001B
:1055900000000000E8031C0CC8006400E803800C55
:1055A0009CFF64002003800C18FCE8032003800C9F
:1055B00018FCE803000000000000000000000000EC
:0455C00000000000E7
:04000005080000ED02
:00000001FF
